{
	"Sertifikat.sol": {
		"SertifikatLiterasiKeuangan": {
			"abi": [
				{
					"inputs": [],
					"stateMutability": "nonpayable",
					"type": "constructor"
				},
				{
					"anonymous": false,
					"inputs": [
						{
							"indexed": false,
							"internalType": "uint256",
							"name": "id",
							"type": "uint256"
						},
						{
							"indexed": false,
							"internalType": "string",
							"name": "name",
							"type": "string"
						},
						{
							"indexed": false,
							"internalType": "address",
							"name": "participant",
							"type": "address"
						}
					],
					"name": "CertificateIssued",
					"type": "event"
				},
				{
					"inputs": [],
					"name": "certificateCount",
					"outputs": [
						{
							"internalType": "uint256",
							"name": "",
							"type": "uint256"
						}
					],
					"stateMutability": "view",
					"type": "function"
				},
				{
					"inputs": [
						{
							"internalType": "uint256",
							"name": "",
							"type": "uint256"
						}
					],
					"name": "certificates",
					"outputs": [
						{
							"internalType": "uint256",
							"name": "id",
							"type": "uint256"
						},
						{
							"internalType": "string",
							"name": "name",
							"type": "string"
						},
						{
							"internalType": "address",
							"name": "participant",
							"type": "address"
						},
						{
							"internalType": "uint256",
							"name": "issuedDate",
							"type": "uint256"
						},
						{
							"internalType": "bool",
							"name": "isValid",
							"type": "bool"
						}
					],
					"stateMutability": "view",
					"type": "function"
				},
				{
					"inputs": [
						{
							"internalType": "address",
							"name": "_participant",
							"type": "address"
						},
						{
							"internalType": "string",
							"name": "_name",
							"type": "string"
						}
					],
					"name": "issueCertificate",
					"outputs": [],
					"stateMutability": "nonpayable",
					"type": "function"
				},
				{
					"inputs": [],
					"name": "owner",
					"outputs": [
						{
							"internalType": "address",
							"name": "",
							"type": "address"
						}
					],
					"stateMutability": "view",
					"type": "function"
				},
				{
					"inputs": [
						{
							"internalType": "uint256",
							"name": "_id",
							"type": "uint256"
						}
					],
					"name": "revokeCertificate",
					"outputs": [],
					"stateMutability": "nonpayable",
					"type": "function"
				},
				{
					"inputs": [
						{
							"internalType": "uint256",
							"name": "_id",
							"type": "uint256"
						}
					],
					"name": "verifyCertificate",
					"outputs": [
						{
							"internalType": "string",
							"name": "name",
							"type": "string"
						},
						{
							"internalType": "address",
							"name": "participant",
							"type": "address"
						},
						{
							"internalType": "uint256",
							"name": "issuedDate",
							"type": "uint256"
						},
						{
							"internalType": "bool",
							"name": "isValid",
							"type": "bool"
						}
					],
					"stateMutability": "view",
					"type": "function"
				}
			],
			"devdoc": {
				"kind": "dev",
				"methods": {},
				"version": 1
			},
			"evm": {
				"assembly": "    /* \"Sertifikat.sol\":60:1742  contract SertifikatLiterasiKeuangan {... */\n  mstore(0x40, 0x80)\n    /* \"Sertifikat.sol\":163:164  0 */\n  0x00\n    /* \"Sertifikat.sol\":132:164  uint public certificateCount = 0 */\n  0x01\n  sstore\n    /* \"Sertifikat.sol\":173:224  constructor() {... */\n  callvalue\n  dup1\n  iszero\n  tag_1\n  jumpi\n  revert(0x00, 0x00)\ntag_1:\n  pop\n    /* \"Sertifikat.sol\":206:216  msg.sender */\n  caller\n    /* \"Sertifikat.sol\":198:203  owner */\n  0x00\n  0x00\n    /* \"Sertifikat.sol\":198:216  owner = msg.sender */\n  0x0100\n  exp\n  dup2\n  sload\n  dup2\n  0xffffffffffffffffffffffffffffffffffffffff\n  mul\n  not\n  and\n  swap1\n  dup4\n  0xffffffffffffffffffffffffffffffffffffffff\n  and\n  mul\n  or\n  swap1\n  sstore\n  pop\n    /* \"Sertifikat.sol\":60:1742  contract SertifikatLiterasiKeuangan {... */\n  dataSize(sub_0)\n  dup1\n  dataOffset(sub_0)\n  0x00\n  codecopy\n  0x00\n  return\nstop\n\nsub_0: assembly {\n        /* \"Sertifikat.sol\":60:1742  contract SertifikatLiterasiKeuangan {... */\n      mstore(0x40, 0x80)\n      callvalue\n      dup1\n      iszero\n      tag_1\n      jumpi\n      revert(0x00, 0x00)\n    tag_1:\n      pop\n      jumpi(tag_2, lt(calldatasize, 0x04))\n      shr(0xe0, calldataload(0x00))\n      dup1\n      0x06f5497e\n      eq\n      tag_3\n      jumpi\n      dup1\n      0x1692a942\n      eq\n      tag_4\n      jumpi\n      dup1\n      0x52d7b89c\n      eq\n      tag_5\n      jumpi\n      dup1\n      0x663b3e22\n      eq\n      tag_6\n      jumpi\n      dup1\n      0x8da5cb5b\n      eq\n      tag_7\n      jumpi\n      dup1\n      0xbb721aab\n      eq\n      tag_8\n      jumpi\n    tag_2:\n      revert(0x00, 0x00)\n        /* \"Sertifikat.sol\":1633:1739  function revokeCertificate(uint _id) public onlyOwner {... */\n    tag_3:\n      tag_9\n      0x04\n      dup1\n      calldatasize\n      sub\n      dup2\n      add\n      swap1\n      tag_10\n      swap2\n      swap1\n      tag_11\n      jump\t// in\n    tag_10:\n      tag_12\n      jump\t// in\n    tag_9:\n      stop\n        /* \"Sertifikat.sol\":1260:1573  function verifyCertificate(uint _id) public view returns (... */\n    tag_4:\n      tag_13\n      0x04\n      dup1\n      calldatasize\n      sub\n      dup2\n      add\n      swap1\n      tag_14\n      swap2\n      swap1\n      tag_11\n      jump\t// in\n    tag_14:\n      tag_15\n      jump\t// in\n    tag_13:\n      mload(0x40)\n      tag_16\n      swap5\n      swap4\n      swap3\n      swap2\n      swap1\n      tag_17\n      jump\t// in\n    tag_16:\n      mload(0x40)\n      dup1\n      swap2\n      sub\n      swap1\n      return\n        /* \"Sertifikat.sol\":132:164  uint public certificateCount = 0 */\n    tag_5:\n      tag_18\n      tag_19\n      jump\t// in\n    tag_18:\n      mload(0x40)\n      tag_20\n      swap2\n      swap1\n      tag_21\n      jump\t// in\n    tag_20:\n      mload(0x40)\n      dup1\n      swap2\n      sub\n      swap1\n      return\n        /* \"Sertifikat.sol\":450:498  mapping(uint => Certificate) public certificates */\n    tag_6:\n      tag_22\n      0x04\n      dup1\n      calldatasize\n      sub\n      dup2\n      add\n      swap1\n      tag_23\n      swap2\n      swap1\n      tag_11\n      jump\t// in\n    tag_23:\n      tag_24\n      jump\t// in\n    tag_22:\n      mload(0x40)\n      tag_25\n      swap6\n      swap5\n      swap4\n      swap3\n      swap2\n      swap1\n      tag_26\n      jump\t// in\n    tag_25:\n      mload(0x40)\n      dup1\n      swap2\n      sub\n      swap1\n      return\n        /* \"Sertifikat.sol\":105:125  address public owner */\n    tag_7:\n      tag_27\n      tag_28\n      jump\t// in\n    tag_27:\n      mload(0x40)\n      tag_29\n      swap2\n      swap1\n      tag_30\n      jump\t// in\n    tag_29:\n      mload(0x40)\n      dup1\n      swap2\n      sub\n      swap1\n      return\n        /* \"Sertifikat.sol\":817:1209  function issueCertificate(address _participant, string memory _name) public onlyOwner {... */\n    tag_8:\n      tag_31\n      0x04\n      dup1\n      calldatasize\n      sub\n      dup2\n      add\n      swap1\n      tag_32\n      swap2\n      swap1\n      tag_33\n      jump\t// in\n    tag_32:\n      tag_34\n      jump\t// in\n    tag_31:\n      stop\n        /* \"Sertifikat.sol\":1633:1739  function revokeCertificate(uint _id) public onlyOwner {... */\n    tag_12:\n        /* \"Sertifikat.sol\":590:595  owner */\n      0x00\n      0x00\n      swap1\n      sload\n      swap1\n      0x0100\n      exp\n      swap1\n      div\n      0xffffffffffffffffffffffffffffffffffffffff\n      and\n        /* \"Sertifikat.sol\":576:595  msg.sender == owner */\n      0xffffffffffffffffffffffffffffffffffffffff\n      and\n        /* \"Sertifikat.sol\":576:586  msg.sender */\n      caller\n        /* \"Sertifikat.sol\":576:595  msg.sender == owner */\n      0xffffffffffffffffffffffffffffffffffffffff\n      and\n      eq\n        /* \"Sertifikat.sol\":568:635  require(msg.sender == owner, \"Hanya admin yang bisa melakukan ini\") */\n      tag_36\n      jumpi\n      mload(0x40)\n      0x08c379a000000000000000000000000000000000000000000000000000000000\n      dup2\n      mstore\n      0x04\n      add\n      tag_37\n      swap1\n      tag_38\n      jump\t// in\n    tag_37:\n      mload(0x40)\n      dup1\n      swap2\n      sub\n      swap1\n      revert\n    tag_36:\n        /* \"Sertifikat.sol\":1726:1731  false */\n      0x00\n        /* \"Sertifikat.sol\":1698:1710  certificates */\n      0x02\n        /* \"Sertifikat.sol\":1698:1715  certificates[_id] */\n      0x00\n        /* \"Sertifikat.sol\":1711:1714  _id */\n      dup4\n        /* \"Sertifikat.sol\":1698:1715  certificates[_id] */\n      dup2\n      mstore\n      0x20\n      add\n      swap1\n      dup2\n      mstore\n      0x20\n      add\n      0x00\n      keccak256\n        /* \"Sertifikat.sol\":1698:1723  certificates[_id].isValid */\n      0x04\n      add\n      0x00\n        /* \"Sertifikat.sol\":1698:1731  certificates[_id].isValid = false */\n      0x0100\n      exp\n      dup2\n      sload\n      dup2\n      0xff\n      mul\n      not\n      and\n      swap1\n      dup4\n      iszero\n      iszero\n      mul\n      or\n      swap1\n      sstore\n      pop\n        /* \"Sertifikat.sol\":1633:1739  function revokeCertificate(uint _id) public onlyOwner {... */\n      pop\n      jump\t// out\n        /* \"Sertifikat.sol\":1260:1573  function verifyCertificate(uint _id) public view returns (... */\n    tag_15:\n        /* \"Sertifikat.sol\":1328:1346  string memory name */\n      0x60\n        /* \"Sertifikat.sol\":1357:1376  address participant */\n      0x00\n        /* \"Sertifikat.sol\":1387:1402  uint issuedDate */\n      0x00\n        /* \"Sertifikat.sol\":1413:1425  bool isValid */\n      0x00\n        /* \"Sertifikat.sol\":1444:1467  Certificate memory cert */\n      0x00\n        /* \"Sertifikat.sol\":1470:1482  certificates */\n      0x02\n        /* \"Sertifikat.sol\":1470:1487  certificates[_id] */\n      0x00\n        /* \"Sertifikat.sol\":1483:1486  _id */\n      dup8\n        /* \"Sertifikat.sol\":1470:1487  certificates[_id] */\n      dup2\n      mstore\n      0x20\n      add\n      swap1\n      dup2\n      mstore\n      0x20\n      add\n      0x00\n      keccak256\n        /* \"Sertifikat.sol\":1444:1487  Certificate memory cert = certificates[_id] */\n      mload(0x40)\n      dup1\n      0xa0\n      add\n      0x40\n      mstore\n      swap1\n      dup2\n      0x00\n      dup3\n      add\n      sload\n      dup2\n      mstore\n      0x20\n      add\n      0x01\n      dup3\n      add\n      dup1\n      sload\n      tag_41\n      swap1\n      tag_42\n      jump\t// in\n    tag_41:\n      dup1\n      0x1f\n      add\n      0x20\n      dup1\n      swap2\n      div\n      mul\n      0x20\n      add\n      mload(0x40)\n      swap1\n      dup2\n      add\n      0x40\n      mstore\n      dup1\n      swap3\n      swap2\n      swap1\n      dup2\n      dup2\n      mstore\n      0x20\n      add\n      dup3\n      dup1\n      sload\n      tag_43\n      swap1\n      tag_42\n      jump\t// in\n    tag_43:\n      dup1\n      iszero\n      tag_44\n      jumpi\n      dup1\n      0x1f\n      lt\n      tag_45\n      jumpi\n      0x0100\n      dup1\n      dup4\n      sload\n      div\n      mul\n      dup4\n      mstore\n      swap2\n      0x20\n      add\n      swap2\n      jump(tag_44)\n    tag_45:\n      dup3\n      add\n      swap2\n      swap1\n      0x00\n      mstore\n      keccak256(0x00, 0x20)\n      swap1\n    tag_46:\n      dup2\n      sload\n      dup2\n      mstore\n      swap1\n      0x01\n      add\n      swap1\n      0x20\n      add\n      dup1\n      dup4\n      gt\n      tag_46\n      jumpi\n      dup3\n      swap1\n      sub\n      0x1f\n      and\n      dup3\n      add\n      swap2\n    tag_44:\n      pop\n      pop\n      pop\n      pop\n      pop\n      dup2\n      mstore\n      0x20\n      add\n      0x02\n      dup3\n      add\n      0x00\n      swap1\n      sload\n      swap1\n      0x0100\n      exp\n      swap1\n      div\n      0xffffffffffffffffffffffffffffffffffffffff\n      and\n      0xffffffffffffffffffffffffffffffffffffffff\n      and\n      0xffffffffffffffffffffffffffffffffffffffff\n      and\n      dup2\n      mstore\n      0x20\n      add\n      0x03\n      dup3\n      add\n      sload\n      dup2\n      mstore\n      0x20\n      add\n      0x04\n      dup3\n      add\n      0x00\n      swap1\n      sload\n      swap1\n      0x0100\n      exp\n      swap1\n      div\n      0xff\n      and\n      iszero\n      iszero\n      iszero\n      iszero\n      dup2\n      mstore\n      pop\n      pop\n      swap1\n      pop\n        /* \"Sertifikat.sol\":1506:1510  cert */\n      dup1\n        /* \"Sertifikat.sol\":1506:1515  cert.name */\n      0x20\n      add\n      mload\n        /* \"Sertifikat.sol\":1517:1521  cert */\n      dup2\n        /* \"Sertifikat.sol\":1517:1533  cert.participant */\n      0x40\n      add\n      mload\n        /* \"Sertifikat.sol\":1535:1539  cert */\n      dup3\n        /* \"Sertifikat.sol\":1535:1550  cert.issuedDate */\n      0x60\n      add\n      mload\n        /* \"Sertifikat.sol\":1552:1556  cert */\n      dup4\n        /* \"Sertifikat.sol\":1552:1564  cert.isValid */\n      0x80\n      add\n      mload\n        /* \"Sertifikat.sol\":1498:1565  return (cert.name, cert.participant, cert.issuedDate, cert.isValid) */\n      swap5\n      pop\n      swap5\n      pop\n      swap5\n      pop\n      swap5\n      pop\n      pop\n        /* \"Sertifikat.sol\":1260:1573  function verifyCertificate(uint _id) public view returns (... */\n      swap2\n      swap4\n      pop\n      swap2\n      swap4\n      jump\t// out\n        /* \"Sertifikat.sol\":132:164  uint public certificateCount = 0 */\n    tag_19:\n      sload(0x01)\n      dup2\n      jump\t// out\n        /* \"Sertifikat.sol\":450:498  mapping(uint => Certificate) public certificates */\n    tag_24:\n      mstore(0x20, 0x02)\n      dup1\n      0x00\n      mstore\n      keccak256(0x00, 0x40)\n      0x00\n      swap2\n      pop\n      swap1\n      pop\n      dup1\n      0x00\n      add\n      sload\n      swap1\n      dup1\n      0x01\n      add\n      dup1\n      sload\n      tag_47\n      swap1\n      tag_42\n      jump\t// in\n    tag_47:\n      dup1\n      0x1f\n      add\n      0x20\n      dup1\n      swap2\n      div\n      mul\n      0x20\n      add\n      mload(0x40)\n      swap1\n      dup2\n      add\n      0x40\n      mstore\n      dup1\n      swap3\n      swap2\n      swap1\n      dup2\n      dup2\n      mstore\n      0x20\n      add\n      dup3\n      dup1\n      sload\n      tag_48\n      swap1\n      tag_42\n      jump\t// in\n    tag_48:\n      dup1\n      iszero\n      tag_49\n      jumpi\n      dup1\n      0x1f\n      lt\n      tag_50\n      jumpi\n      0x0100\n      dup1\n      dup4\n      sload\n      div\n      mul\n      dup4\n      mstore\n      swap2\n      0x20\n      add\n      swap2\n      jump(tag_49)\n    tag_50:\n      dup3\n      add\n      swap2\n      swap1\n      0x00\n      mstore\n      keccak256(0x00, 0x20)\n      swap1\n    tag_51:\n      dup2\n      sload\n      dup2\n      mstore\n      swap1\n      0x01\n      add\n      swap1\n      0x20\n      add\n      dup1\n      dup4\n      gt\n      tag_51\n      jumpi\n      dup3\n      swap1\n      sub\n      0x1f\n      and\n      dup3\n      add\n      swap2\n    tag_49:\n      pop\n      pop\n      pop\n      pop\n      pop\n      swap1\n      dup1\n      0x02\n      add\n      0x00\n      swap1\n      sload\n      swap1\n      0x0100\n      exp\n      swap1\n      div\n      0xffffffffffffffffffffffffffffffffffffffff\n      and\n      swap1\n      dup1\n      0x03\n      add\n      sload\n      swap1\n      dup1\n      0x04\n      add\n      0x00\n      swap1\n      sload\n      swap1\n      0x0100\n      exp\n      swap1\n      div\n      0xff\n      and\n      swap1\n      pop\n      dup6\n      jump\t// out\n        /* \"Sertifikat.sol\":105:125  address public owner */\n    tag_28:\n      0x00\n      0x00\n      swap1\n      sload\n      swap1\n      0x0100\n      exp\n      swap1\n      div\n      0xffffffffffffffffffffffffffffffffffffffff\n      and\n      dup2\n      jump\t// out\n        /* \"Sertifikat.sol\":817:1209  function issueCertificate(address _participant, string memory _name) public onlyOwner {... */\n    tag_34:\n        /* \"Sertifikat.sol\":590:595  owner */\n      0x00\n      0x00\n      swap1\n      sload\n      swap1\n      0x0100\n      exp\n      swap1\n      div\n      0xffffffffffffffffffffffffffffffffffffffff\n      and\n        /* \"Sertifikat.sol\":576:595  msg.sender == owner */\n      0xffffffffffffffffffffffffffffffffffffffff\n      and\n        /* \"Sertifikat.sol\":576:586  msg.sender */\n      caller\n        /* \"Sertifikat.sol\":576:595  msg.sender == owner */\n      0xffffffffffffffffffffffffffffffffffffffff\n      and\n      eq\n        /* \"Sertifikat.sol\":568:635  require(msg.sender == owner, \"Hanya admin yang bisa melakukan ini\") */\n      tag_53\n      jumpi\n      mload(0x40)\n      0x08c379a000000000000000000000000000000000000000000000000000000000\n      dup2\n      mstore\n      0x04\n      add\n      tag_54\n      swap1\n      tag_38\n      jump\t// in\n    tag_54:\n      mload(0x40)\n      dup1\n      swap2\n      sub\n      swap1\n      revert\n    tag_53:\n        /* \"Sertifikat.sol\":914:930  certificateCount */\n      0x01\n      0x00\n        /* \"Sertifikat.sol\":914:932  certificateCount++ */\n      dup2\n      sload\n      dup1\n      swap3\n      swap2\n      swap1\n      tag_56\n      swap1\n      tag_57\n      jump\t// in\n    tag_56:\n      swap2\n      swap1\n      pop\n      sstore\n      pop\n        /* \"Sertifikat.sol\":978:1127  Certificate(... */\n      mload(0x40)\n      dup1\n      0xa0\n      add\n      0x40\n      mstore\n      dup1\n        /* \"Sertifikat.sol\":1004:1020  certificateCount */\n      sload(0x01)\n        /* \"Sertifikat.sol\":978:1127  Certificate(... */\n      dup2\n      mstore\n      0x20\n      add\n        /* \"Sertifikat.sol\":1035:1040  _name */\n      dup3\n        /* \"Sertifikat.sol\":978:1127  Certificate(... */\n      dup2\n      mstore\n      0x20\n      add\n        /* \"Sertifikat.sol\":1055:1067  _participant */\n      dup4\n        /* \"Sertifikat.sol\":978:1127  Certificate(... */\n      0xffffffffffffffffffffffffffffffffffffffff\n      and\n      dup2\n      mstore\n      0x20\n      add\n        /* \"Sertifikat.sol\":1082:1097  block.timestamp */\n      timestamp\n        /* \"Sertifikat.sol\":978:1127  Certificate(... */\n      dup2\n      mstore\n      0x20\n      add\n        /* \"Sertifikat.sol\":1112:1116  true */\n      0x01\n        /* \"Sertifikat.sol\":978:1127  Certificate(... */\n      iszero\n      iszero\n      dup2\n      mstore\n      pop\n        /* \"Sertifikat.sol\":945:957  certificates */\n      0x02\n        /* \"Sertifikat.sol\":945:975  certificates[certificateCount] */\n      0x00\n        /* \"Sertifikat.sol\":958:974  certificateCount */\n      sload(0x01)\n        /* \"Sertifikat.sol\":945:975  certificates[certificateCount] */\n      dup2\n      mstore\n      0x20\n      add\n      swap1\n      dup2\n      mstore\n      0x20\n      add\n      0x00\n      keccak256\n        /* \"Sertifikat.sol\":945:1127  certificates[certificateCount] = Certificate(... */\n      0x00\n      dup3\n      add\n      mload\n      dup2\n      0x00\n      add\n      sstore\n      0x20\n      dup3\n      add\n      mload\n      dup2\n      0x01\n      add\n      swap1\n      dup2\n      tag_58\n      swap2\n      swap1\n      tag_59\n      jump\t// in\n    tag_58:\n      pop\n      0x40\n      dup3\n      add\n      mload\n      dup2\n      0x02\n      add\n      exp(0x0100, 0x00)\n      dup2\n      sload\n      dup2\n      0xffffffffffffffffffffffffffffffffffffffff\n      mul\n      not\n      and\n      swap1\n      dup4\n      0xffffffffffffffffffffffffffffffffffffffff\n      and\n      mul\n      or\n      swap1\n      sstore\n      pop\n      0x60\n      dup3\n      add\n      mload\n      dup2\n      0x03\n      add\n      sstore\n      0x80\n      dup3\n      add\n      mload\n      dup2\n      0x04\n      add\n      exp(0x0100, 0x00)\n      dup2\n      sload\n      dup2\n      0xff\n      mul\n      not\n      and\n      swap1\n      dup4\n      iszero\n      iszero\n      mul\n      or\n      swap1\n      sstore\n      pop\n      swap1\n      pop\n      pop\n        /* \"Sertifikat.sol\":1145:1201  CertificateIssued(certificateCount, _name, _participant) */\n      0x5035fe3a538bed56d4969d413299a1db6631592b0457263ad1b1509171624cfe\n        /* \"Sertifikat.sol\":1163:1179  certificateCount */\n      sload(0x01)\n        /* \"Sertifikat.sol\":1181:1186  _name */\n      dup3\n        /* \"Sertifikat.sol\":1188:1200  _participant */\n      dup5\n        /* \"Sertifikat.sol\":1145:1201  CertificateIssued(certificateCount, _name, _participant) */\n      mload(0x40)\n      tag_60\n      swap4\n      swap3\n      swap2\n      swap1\n      tag_61\n      jump\t// in\n    tag_60:\n      mload(0x40)\n      dup1\n      swap2\n      sub\n      swap1\n      log1\n        /* \"Sertifikat.sol\":817:1209  function issueCertificate(address _participant, string memory _name) public onlyOwner {... */\n      pop\n      pop\n      jump\t// out\n        /* \"#utility.yul\":7:82   */\n    tag_62:\n        /* \"#utility.yul\":40:46   */\n      0x00\n        /* \"#utility.yul\":73:75   */\n      0x40\n        /* \"#utility.yul\":67:76   */\n      mload\n        /* \"#utility.yul\":57:76   */\n      swap1\n      pop\n        /* \"#utility.yul\":7:82   */\n      swap1\n      jump\t// out\n        /* \"#utility.yul\":88:205   */\n    tag_63:\n        /* \"#utility.yul\":197:198   */\n      0x00\n        /* \"#utility.yul\":194:195   */\n      0x00\n        /* \"#utility.yul\":187:199   */\n      revert\n        /* \"#utility.yul\":211:328   */\n    tag_64:\n        /* \"#utility.yul\":320:321   */\n      0x00\n        /* \"#utility.yul\":317:318   */\n      0x00\n        /* \"#utility.yul\":310:322   */\n      revert\n        /* \"#utility.yul\":334:411   */\n    tag_65:\n        /* \"#utility.yul\":371:378   */\n      0x00\n        /* \"#utility.yul\":400:405   */\n      dup2\n        /* \"#utility.yul\":389:405   */\n      swap1\n      pop\n        /* \"#utility.yul\":334:411   */\n      swap2\n      swap1\n      pop\n      jump\t// out\n        /* \"#utility.yul\":417:539   */\n    tag_66:\n        /* \"#utility.yul\":490:514   */\n      tag_115\n        /* \"#utility.yul\":508:513   */\n      dup2\n        /* \"#utility.yul\":490:514   */\n      tag_65\n      jump\t// in\n    tag_115:\n        /* \"#utility.yul\":483:488   */\n      dup2\n        /* \"#utility.yul\":480:515   */\n      eq\n        /* \"#utility.yul\":470:533   */\n      tag_116\n      jumpi\n        /* \"#utility.yul\":529:530   */\n      0x00\n        /* \"#utility.yul\":526:527   */\n      0x00\n        /* \"#utility.yul\":519:531   */\n      revert\n        /* \"#utility.yul\":470:533   */\n    tag_116:\n        /* \"#utility.yul\":417:539   */\n      pop\n      jump\t// out\n        /* \"#utility.yul\":545:684   */\n    tag_67:\n        /* \"#utility.yul\":591:596   */\n      0x00\n        /* \"#utility.yul\":629:635   */\n      dup2\n        /* \"#utility.yul\":616:636   */\n      calldataload\n        /* \"#utility.yul\":607:636   */\n      swap1\n      pop\n        /* \"#utility.yul\":645:678   */\n      tag_118\n        /* \"#utility.yul\":672:677   */\n      dup2\n        /* \"#utility.yul\":645:678   */\n      tag_66\n      jump\t// in\n    tag_118:\n        /* \"#utility.yul\":545:684   */\n      swap3\n      swap2\n      pop\n      pop\n      jump\t// out\n        /* \"#utility.yul\":690:1019   */\n    tag_11:\n        /* \"#utility.yul\":749:755   */\n      0x00\n        /* \"#utility.yul\":798:800   */\n      0x20\n        /* \"#utility.yul\":786:795   */\n      dup3\n        /* \"#utility.yul\":777:784   */\n      dup5\n        /* \"#utility.yul\":773:796   */\n      sub\n        /* \"#utility.yul\":769:801   */\n      slt\n        /* \"#utility.yul\":766:885   */\n      iszero\n      tag_120\n      jumpi\n        /* \"#utility.yul\":804:883   */\n      tag_121\n      tag_63\n      jump\t// in\n    tag_121:\n        /* \"#utility.yul\":766:885   */\n    tag_120:\n        /* \"#utility.yul\":924:925   */\n      0x00\n        /* \"#utility.yul\":949:1002   */\n      tag_122\n        /* \"#utility.yul\":994:1001   */\n      dup5\n        /* \"#utility.yul\":985:991   */\n      dup3\n        /* \"#utility.yul\":974:983   */\n      dup6\n        /* \"#utility.yul\":970:992   */\n      add\n        /* \"#utility.yul\":949:1002   */\n      tag_67\n      jump\t// in\n    tag_122:\n        /* \"#utility.yul\":939:1002   */\n      swap2\n      pop\n        /* \"#utility.yul\":895:1012   */\n      pop\n        /* \"#utility.yul\":690:1019   */\n      swap3\n      swap2\n      pop\n      pop\n      jump\t// out\n        /* \"#utility.yul\":1025:1124   */\n    tag_68:\n        /* \"#utility.yul\":1077:1083   */\n      0x00\n        /* \"#utility.yul\":1111:1116   */\n      dup2\n        /* \"#utility.yul\":1105:1117   */\n      mload\n        /* \"#utility.yul\":1095:1117   */\n      swap1\n      pop\n        /* \"#utility.yul\":1025:1124   */\n      swap2\n      swap1\n      pop\n      jump\t// out\n        /* \"#utility.yul\":1130:1299   */\n    tag_69:\n        /* \"#utility.yul\":1214:1225   */\n      0x00\n        /* \"#utility.yul\":1248:1254   */\n      dup3\n        /* \"#utility.yul\":1243:1246   */\n      dup3\n        /* \"#utility.yul\":1236:1255   */\n      mstore\n        /* \"#utility.yul\":1288:1292   */\n      0x20\n        /* \"#utility.yul\":1283:1286   */\n      dup3\n        /* \"#utility.yul\":1279:1293   */\n      add\n        /* \"#utility.yul\":1264:1293   */\n      swap1\n      pop\n        /* \"#utility.yul\":1130:1299   */\n      swap3\n      swap2\n      pop\n      pop\n      jump\t// out\n        /* \"#utility.yul\":1305:1444   */\n    tag_70:\n        /* \"#utility.yul\":1394:1400   */\n      dup3\n        /* \"#utility.yul\":1389:1392   */\n      dup2\n        /* \"#utility.yul\":1384:1387   */\n      dup4\n        /* \"#utility.yul\":1378:1401   */\n      mcopy\n        /* \"#utility.yul\":1435:1436   */\n      0x00\n        /* \"#utility.yul\":1426:1432   */\n      dup4\n        /* \"#utility.yul\":1421:1424   */\n      dup4\n        /* \"#utility.yul\":1417:1433   */\n      add\n        /* \"#utility.yul\":1410:1437   */\n      mstore\n        /* \"#utility.yul\":1305:1444   */\n      pop\n      pop\n      pop\n      jump\t// out\n        /* \"#utility.yul\":1450:1552   */\n    tag_71:\n        /* \"#utility.yul\":1491:1497   */\n      0x00\n        /* \"#utility.yul\":1542:1544   */\n      0x1f\n        /* \"#utility.yul\":1538:1545   */\n      not\n        /* \"#utility.yul\":1533:1535   */\n      0x1f\n        /* \"#utility.yul\":1526:1531   */\n      dup4\n        /* \"#utility.yul\":1522:1536   */\n      add\n        /* \"#utility.yul\":1518:1546   */\n      and\n        /* \"#utility.yul\":1508:1546   */\n      swap1\n      pop\n        /* \"#utility.yul\":1450:1552   */\n      swap2\n      swap1\n      pop\n      jump\t// out\n        /* \"#utility.yul\":1558:1935   */\n    tag_72:\n        /* \"#utility.yul\":1646:1649   */\n      0x00\n        /* \"#utility.yul\":1674:1713   */\n      tag_128\n        /* \"#utility.yul\":1707:1712   */\n      dup3\n        /* \"#utility.yul\":1674:1713   */\n      tag_68\n      jump\t// in\n    tag_128:\n        /* \"#utility.yul\":1729:1800   */\n      tag_129\n        /* \"#utility.yul\":1793:1799   */\n      dup2\n        /* \"#utility.yul\":1788:1791   */\n      dup6\n        /* \"#utility.yul\":1729:1800   */\n      tag_69\n      jump\t// in\n    tag_129:\n        /* \"#utility.yul\":1722:1800   */\n      swap4\n      pop\n        /* \"#utility.yul\":1809:1874   */\n      tag_130\n        /* \"#utility.yul\":1867:1873   */\n      dup2\n        /* \"#utility.yul\":1862:1865   */\n      dup6\n        /* \"#utility.yul\":1855:1859   */\n      0x20\n        /* \"#utility.yul\":1848:1853   */\n      dup7\n        /* \"#utility.yul\":1844:1860   */\n      add\n        /* \"#utility.yul\":1809:1874   */\n      tag_70\n      jump\t// in\n    tag_130:\n        /* \"#utility.yul\":1899:1928   */\n      tag_131\n        /* \"#utility.yul\":1921:1927   */\n      dup2\n        /* \"#utility.yul\":1899:1928   */\n      tag_71\n      jump\t// in\n    tag_131:\n        /* \"#utility.yul\":1894:1897   */\n      dup5\n        /* \"#utility.yul\":1890:1929   */\n      add\n        /* \"#utility.yul\":1883:1929   */\n      swap2\n      pop\n        /* \"#utility.yul\":1650:1935   */\n      pop\n        /* \"#utility.yul\":1558:1935   */\n      swap3\n      swap2\n      pop\n      pop\n      jump\t// out\n        /* \"#utility.yul\":1941:2067   */\n    tag_73:\n        /* \"#utility.yul\":1978:1985   */\n      0x00\n        /* \"#utility.yul\":2018:2060   */\n      0xffffffffffffffffffffffffffffffffffffffff\n        /* \"#utility.yul\":2011:2016   */\n      dup3\n        /* \"#utility.yul\":2007:2061   */\n      and\n        /* \"#utility.yul\":1996:2061   */\n      swap1\n      pop\n        /* \"#utility.yul\":1941:2067   */\n      swap2\n      swap1\n      pop\n      jump\t// out\n        /* \"#utility.yul\":2073:2169   */\n    tag_74:\n        /* \"#utility.yul\":2110:2117   */\n      0x00\n        /* \"#utility.yul\":2139:2163   */\n      tag_134\n        /* \"#utility.yul\":2157:2162   */\n      dup3\n        /* \"#utility.yul\":2139:2163   */\n      tag_73\n      jump\t// in\n    tag_134:\n        /* \"#utility.yul\":2128:2163   */\n      swap1\n      pop\n        /* \"#utility.yul\":2073:2169   */\n      swap2\n      swap1\n      pop\n      jump\t// out\n        /* \"#utility.yul\":2175:2293   */\n    tag_75:\n        /* \"#utility.yul\":2262:2286   */\n      tag_136\n        /* \"#utility.yul\":2280:2285   */\n      dup2\n        /* \"#utility.yul\":2262:2286   */\n      tag_74\n      jump\t// in\n    tag_136:\n        /* \"#utility.yul\":2257:2260   */\n      dup3\n        /* \"#utility.yul\":2250:2287   */\n      mstore\n        /* \"#utility.yul\":2175:2293   */\n      pop\n      pop\n      jump\t// out\n        /* \"#utility.yul\":2299:2417   */\n    tag_76:\n        /* \"#utility.yul\":2386:2410   */\n      tag_138\n        /* \"#utility.yul\":2404:2409   */\n      dup2\n        /* \"#utility.yul\":2386:2410   */\n      tag_65\n      jump\t// in\n    tag_138:\n        /* \"#utility.yul\":2381:2384   */\n      dup3\n        /* \"#utility.yul\":2374:2411   */\n      mstore\n        /* \"#utility.yul\":2299:2417   */\n      pop\n      pop\n      jump\t// out\n        /* \"#utility.yul\":2423:2513   */\n    tag_77:\n        /* \"#utility.yul\":2457:2464   */\n      0x00\n        /* \"#utility.yul\":2500:2505   */\n      dup2\n        /* \"#utility.yul\":2493:2506   */\n      iszero\n        /* \"#utility.yul\":2486:2507   */\n      iszero\n        /* \"#utility.yul\":2475:2507   */\n      swap1\n      pop\n        /* \"#utility.yul\":2423:2513   */\n      swap2\n      swap1\n      pop\n      jump\t// out\n        /* \"#utility.yul\":2519:2628   */\n    tag_78:\n        /* \"#utility.yul\":2600:2621   */\n      tag_141\n        /* \"#utility.yul\":2615:2620   */\n      dup2\n        /* \"#utility.yul\":2600:2621   */\n      tag_77\n      jump\t// in\n    tag_141:\n        /* \"#utility.yul\":2595:2598   */\n      dup3\n        /* \"#utility.yul\":2588:2622   */\n      mstore\n        /* \"#utility.yul\":2519:2628   */\n      pop\n      pop\n      jump\t// out\n        /* \"#utility.yul\":2634:3266   */\n    tag_17:\n        /* \"#utility.yul\":2825:2829   */\n      0x00\n        /* \"#utility.yul\":2863:2866   */\n      0x80\n        /* \"#utility.yul\":2852:2861   */\n      dup3\n        /* \"#utility.yul\":2848:2867   */\n      add\n        /* \"#utility.yul\":2840:2867   */\n      swap1\n      pop\n        /* \"#utility.yul\":2913:2922   */\n      dup2\n        /* \"#utility.yul\":2907:2911   */\n      dup2\n        /* \"#utility.yul\":2903:2923   */\n      sub\n        /* \"#utility.yul\":2899:2900   */\n      0x00\n        /* \"#utility.yul\":2888:2897   */\n      dup4\n        /* \"#utility.yul\":2884:2901   */\n      add\n        /* \"#utility.yul\":2877:2924   */\n      mstore\n        /* \"#utility.yul\":2941:3019   */\n      tag_143\n        /* \"#utility.yul\":3014:3018   */\n      dup2\n        /* \"#utility.yul\":3005:3011   */\n      dup8\n        /* \"#utility.yul\":2941:3019   */\n      tag_72\n      jump\t// in\n    tag_143:\n        /* \"#utility.yul\":2933:3019   */\n      swap1\n      pop\n        /* \"#utility.yul\":3029:3101   */\n      tag_144\n        /* \"#utility.yul\":3097:3099   */\n      0x20\n        /* \"#utility.yul\":3086:3095   */\n      dup4\n        /* \"#utility.yul\":3082:3100   */\n      add\n        /* \"#utility.yul\":3073:3079   */\n      dup7\n        /* \"#utility.yul\":3029:3101   */\n      tag_75\n      jump\t// in\n    tag_144:\n        /* \"#utility.yul\":3111:3183   */\n      tag_145\n        /* \"#utility.yul\":3179:3181   */\n      0x40\n        /* \"#utility.yul\":3168:3177   */\n      dup4\n        /* \"#utility.yul\":3164:3182   */\n      add\n        /* \"#utility.yul\":3155:3161   */\n      dup6\n        /* \"#utility.yul\":3111:3183   */\n      tag_76\n      jump\t// in\n    tag_145:\n        /* \"#utility.yul\":3193:3259   */\n      tag_146\n        /* \"#utility.yul\":3255:3257   */\n      0x60\n        /* \"#utility.yul\":3244:3253   */\n      dup4\n        /* \"#utility.yul\":3240:3258   */\n      add\n        /* \"#utility.yul\":3231:3237   */\n      dup5\n        /* \"#utility.yul\":3193:3259   */\n      tag_78\n      jump\t// in\n    tag_146:\n        /* \"#utility.yul\":2634:3266   */\n      swap6\n      swap5\n      pop\n      pop\n      pop\n      pop\n      pop\n      jump\t// out\n        /* \"#utility.yul\":3272:3494   */\n    tag_21:\n        /* \"#utility.yul\":3365:3369   */\n      0x00\n        /* \"#utility.yul\":3403:3405   */\n      0x20\n        /* \"#utility.yul\":3392:3401   */\n      dup3\n        /* \"#utility.yul\":3388:3406   */\n      add\n        /* \"#utility.yul\":3380:3406   */\n      swap1\n      pop\n        /* \"#utility.yul\":3416:3487   */\n      tag_148\n        /* \"#utility.yul\":3484:3485   */\n      0x00\n        /* \"#utility.yul\":3473:3482   */\n      dup4\n        /* \"#utility.yul\":3469:3486   */\n      add\n        /* \"#utility.yul\":3460:3466   */\n      dup5\n        /* \"#utility.yul\":3416:3487   */\n      tag_76\n      jump\t// in\n    tag_148:\n        /* \"#utility.yul\":3272:3494   */\n      swap3\n      swap2\n      pop\n      pop\n      jump\t// out\n        /* \"#utility.yul\":3500:4243   */\n    tag_26:\n        /* \"#utility.yul\":3719:3723   */\n      0x00\n        /* \"#utility.yul\":3757:3760   */\n      0xa0\n        /* \"#utility.yul\":3746:3755   */\n      dup3\n        /* \"#utility.yul\":3742:3761   */\n      add\n        /* \"#utility.yul\":3734:3761   */\n      swap1\n      pop\n        /* \"#utility.yul\":3771:3842   */\n      tag_150\n        /* \"#utility.yul\":3839:3840   */\n      0x00\n        /* \"#utility.yul\":3828:3837   */\n      dup4\n        /* \"#utility.yul\":3824:3841   */\n      add\n        /* \"#utility.yul\":3815:3821   */\n      dup9\n        /* \"#utility.yul\":3771:3842   */\n      tag_76\n      jump\t// in\n    tag_150:\n        /* \"#utility.yul\":3889:3898   */\n      dup2\n        /* \"#utility.yul\":3883:3887   */\n      dup2\n        /* \"#utility.yul\":3879:3899   */\n      sub\n        /* \"#utility.yul\":3874:3876   */\n      0x20\n        /* \"#utility.yul\":3863:3872   */\n      dup4\n        /* \"#utility.yul\":3859:3877   */\n      add\n        /* \"#utility.yul\":3852:3900   */\n      mstore\n        /* \"#utility.yul\":3917:3995   */\n      tag_151\n        /* \"#utility.yul\":3990:3994   */\n      dup2\n        /* \"#utility.yul\":3981:3987   */\n      dup8\n        /* \"#utility.yul\":3917:3995   */\n      tag_72\n      jump\t// in\n    tag_151:\n        /* \"#utility.yul\":3909:3995   */\n      swap1\n      pop\n        /* \"#utility.yul\":4005:4077   */\n      tag_152\n        /* \"#utility.yul\":4073:4075   */\n      0x40\n        /* \"#utility.yul\":4062:4071   */\n      dup4\n        /* \"#utility.yul\":4058:4076   */\n      add\n        /* \"#utility.yul\":4049:4055   */\n      dup7\n        /* \"#utility.yul\":4005:4077   */\n      tag_75\n      jump\t// in\n    tag_152:\n        /* \"#utility.yul\":4087:4159   */\n      tag_153\n        /* \"#utility.yul\":4155:4157   */\n      0x60\n        /* \"#utility.yul\":4144:4153   */\n      dup4\n        /* \"#utility.yul\":4140:4158   */\n      add\n        /* \"#utility.yul\":4131:4137   */\n      dup6\n        /* \"#utility.yul\":4087:4159   */\n      tag_76\n      jump\t// in\n    tag_153:\n        /* \"#utility.yul\":4169:4236   */\n      tag_154\n        /* \"#utility.yul\":4231:4234   */\n      0x80\n        /* \"#utility.yul\":4220:4229   */\n      dup4\n        /* \"#utility.yul\":4216:4235   */\n      add\n        /* \"#utility.yul\":4207:4213   */\n      dup5\n        /* \"#utility.yul\":4169:4236   */\n      tag_78\n      jump\t// in\n    tag_154:\n        /* \"#utility.yul\":3500:4243   */\n      swap7\n      swap6\n      pop\n      pop\n      pop\n      pop\n      pop\n      pop\n      jump\t// out\n        /* \"#utility.yul\":4249:4471   */\n    tag_30:\n        /* \"#utility.yul\":4342:4346   */\n      0x00\n        /* \"#utility.yul\":4380:4382   */\n      0x20\n        /* \"#utility.yul\":4369:4378   */\n      dup3\n        /* \"#utility.yul\":4365:4383   */\n      add\n        /* \"#utility.yul\":4357:4383   */\n      swap1\n      pop\n        /* \"#utility.yul\":4393:4464   */\n      tag_156\n        /* \"#utility.yul\":4461:4462   */\n      0x00\n        /* \"#utility.yul\":4450:4459   */\n      dup4\n        /* \"#utility.yul\":4446:4463   */\n      add\n        /* \"#utility.yul\":4437:4443   */\n      dup5\n        /* \"#utility.yul\":4393:4464   */\n      tag_75\n      jump\t// in\n    tag_156:\n        /* \"#utility.yul\":4249:4471   */\n      swap3\n      swap2\n      pop\n      pop\n      jump\t// out\n        /* \"#utility.yul\":4477:4599   */\n    tag_79:\n        /* \"#utility.yul\":4550:4574   */\n      tag_158\n        /* \"#utility.yul\":4568:4573   */\n      dup2\n        /* \"#utility.yul\":4550:4574   */\n      tag_74\n      jump\t// in\n    tag_158:\n        /* \"#utility.yul\":4543:4548   */\n      dup2\n        /* \"#utility.yul\":4540:4575   */\n      eq\n        /* \"#utility.yul\":4530:4593   */\n      tag_159\n      jumpi\n        /* \"#utility.yul\":4589:4590   */\n      0x00\n        /* \"#utility.yul\":4586:4587   */\n      0x00\n        /* \"#utility.yul\":4579:4591   */\n      revert\n        /* \"#utility.yul\":4530:4593   */\n    tag_159:\n        /* \"#utility.yul\":4477:4599   */\n      pop\n      jump\t// out\n        /* \"#utility.yul\":4605:4744   */\n    tag_80:\n        /* \"#utility.yul\":4651:4656   */\n      0x00\n        /* \"#utility.yul\":4689:4695   */\n      dup2\n        /* \"#utility.yul\":4676:4696   */\n      calldataload\n        /* \"#utility.yul\":4667:4696   */\n      swap1\n      pop\n        /* \"#utility.yul\":4705:4738   */\n      tag_161\n        /* \"#utility.yul\":4732:4737   */\n      dup2\n        /* \"#utility.yul\":4705:4738   */\n      tag_79\n      jump\t// in\n    tag_161:\n        /* \"#utility.yul\":4605:4744   */\n      swap3\n      swap2\n      pop\n      pop\n      jump\t// out\n        /* \"#utility.yul\":4750:4867   */\n    tag_81:\n        /* \"#utility.yul\":4859:4860   */\n      0x00\n        /* \"#utility.yul\":4856:4857   */\n      0x00\n        /* \"#utility.yul\":4849:4861   */\n      revert\n        /* \"#utility.yul\":4873:4990   */\n    tag_82:\n        /* \"#utility.yul\":4982:4983   */\n      0x00\n        /* \"#utility.yul\":4979:4980   */\n      0x00\n        /* \"#utility.yul\":4972:4984   */\n      revert\n        /* \"#utility.yul\":4996:5176   */\n    tag_83:\n        /* \"#utility.yul\":5044:5121   */\n      0x4e487b7100000000000000000000000000000000000000000000000000000000\n        /* \"#utility.yul\":5041:5042   */\n      0x00\n        /* \"#utility.yul\":5034:5122   */\n      mstore\n        /* \"#utility.yul\":5141:5145   */\n      0x41\n        /* \"#utility.yul\":5138:5139   */\n      0x04\n        /* \"#utility.yul\":5131:5146   */\n      mstore\n        /* \"#utility.yul\":5165:5169   */\n      0x24\n        /* \"#utility.yul\":5162:5163   */\n      0x00\n        /* \"#utility.yul\":5155:5170   */\n      revert\n        /* \"#utility.yul\":5182:5463   */\n    tag_84:\n        /* \"#utility.yul\":5265:5292   */\n      tag_166\n        /* \"#utility.yul\":5287:5291   */\n      dup3\n        /* \"#utility.yul\":5265:5292   */\n      tag_71\n      jump\t// in\n    tag_166:\n        /* \"#utility.yul\":5257:5263   */\n      dup2\n        /* \"#utility.yul\":5253:5293   */\n      add\n        /* \"#utility.yul\":5395:5401   */\n      dup2\n        /* \"#utility.yul\":5383:5393   */\n      dup2\n        /* \"#utility.yul\":5380:5402   */\n      lt\n        /* \"#utility.yul\":5359:5377   */\n      0xffffffffffffffff\n        /* \"#utility.yul\":5347:5357   */\n      dup3\n        /* \"#utility.yul\":5344:5378   */\n      gt\n        /* \"#utility.yul\":5341:5403   */\n      or\n        /* \"#utility.yul\":5338:5426   */\n      iszero\n      tag_167\n      jumpi\n        /* \"#utility.yul\":5406:5424   */\n      tag_168\n      tag_83\n      jump\t// in\n    tag_168:\n        /* \"#utility.yul\":5338:5426   */\n    tag_167:\n        /* \"#utility.yul\":5446:5456   */\n      dup1\n        /* \"#utility.yul\":5442:5444   */\n      0x40\n        /* \"#utility.yul\":5435:5457   */\n      mstore\n        /* \"#utility.yul\":5225:5463   */\n      pop\n        /* \"#utility.yul\":5182:5463   */\n      pop\n      pop\n      jump\t// out\n        /* \"#utility.yul\":5469:5598   */\n    tag_85:\n        /* \"#utility.yul\":5503:5509   */\n      0x00\n        /* \"#utility.yul\":5530:5550   */\n      tag_170\n      tag_62\n      jump\t// in\n    tag_170:\n        /* \"#utility.yul\":5520:5550   */\n      swap1\n      pop\n        /* \"#utility.yul\":5559:5592   */\n      tag_171\n        /* \"#utility.yul\":5587:5591   */\n      dup3\n        /* \"#utility.yul\":5579:5585   */\n      dup3\n        /* \"#utility.yul\":5559:5592   */\n      tag_84\n      jump\t// in\n    tag_171:\n        /* \"#utility.yul\":5469:5598   */\n      swap2\n      swap1\n      pop\n      jump\t// out\n        /* \"#utility.yul\":5604:5912   */\n    tag_86:\n        /* \"#utility.yul\":5666:5670   */\n      0x00\n        /* \"#utility.yul\":5756:5774   */\n      0xffffffffffffffff\n        /* \"#utility.yul\":5748:5754   */\n      dup3\n        /* \"#utility.yul\":5745:5775   */\n      gt\n        /* \"#utility.yul\":5742:5798   */\n      iszero\n      tag_173\n      jumpi\n        /* \"#utility.yul\":5778:5796   */\n      tag_174\n      tag_83\n      jump\t// in\n    tag_174:\n        /* \"#utility.yul\":5742:5798   */\n    tag_173:\n        /* \"#utility.yul\":5816:5845   */\n      tag_175\n        /* \"#utility.yul\":5838:5844   */\n      dup3\n        /* \"#utility.yul\":5816:5845   */\n      tag_71\n      jump\t// in\n    tag_175:\n        /* \"#utility.yul\":5808:5845   */\n      swap1\n      pop\n        /* \"#utility.yul\":5900:5904   */\n      0x20\n        /* \"#utility.yul\":5894:5898   */\n      dup2\n        /* \"#utility.yul\":5890:5905   */\n      add\n        /* \"#utility.yul\":5882:5905   */\n      swap1\n      pop\n        /* \"#utility.yul\":5604:5912   */\n      swap2\n      swap1\n      pop\n      jump\t// out\n        /* \"#utility.yul\":5918:6066   */\n    tag_87:\n        /* \"#utility.yul\":6016:6022   */\n      dup3\n        /* \"#utility.yul\":6011:6014   */\n      dup2\n        /* \"#utility.yul\":6006:6009   */\n      dup4\n        /* \"#utility.yul\":5993:6023   */\n      calldatacopy\n        /* \"#utility.yul\":6057:6058   */\n      0x00\n        /* \"#utility.yul\":6048:6054   */\n      dup4\n        /* \"#utility.yul\":6043:6046   */\n      dup4\n        /* \"#utility.yul\":6039:6055   */\n      add\n        /* \"#utility.yul\":6032:6059   */\n      mstore\n        /* \"#utility.yul\":5918:6066   */\n      pop\n      pop\n      pop\n      jump\t// out\n        /* \"#utility.yul\":6072:6497   */\n    tag_88:\n        /* \"#utility.yul\":6150:6155   */\n      0x00\n        /* \"#utility.yul\":6175:6241   */\n      tag_178\n        /* \"#utility.yul\":6191:6240   */\n      tag_179\n        /* \"#utility.yul\":6233:6239   */\n      dup5\n        /* \"#utility.yul\":6191:6240   */\n      tag_86\n      jump\t// in\n    tag_179:\n        /* \"#utility.yul\":6175:6241   */\n      tag_85\n      jump\t// in\n    tag_178:\n        /* \"#utility.yul\":6166:6241   */\n      swap1\n      pop\n        /* \"#utility.yul\":6264:6270   */\n      dup3\n        /* \"#utility.yul\":6257:6262   */\n      dup2\n        /* \"#utility.yul\":6250:6271   */\n      mstore\n        /* \"#utility.yul\":6302:6306   */\n      0x20\n        /* \"#utility.yul\":6295:6300   */\n      dup2\n        /* \"#utility.yul\":6291:6307   */\n      add\n        /* \"#utility.yul\":6340:6343   */\n      dup5\n        /* \"#utility.yul\":6331:6337   */\n      dup5\n        /* \"#utility.yul\":6326:6329   */\n      dup5\n        /* \"#utility.yul\":6322:6338   */\n      add\n        /* \"#utility.yul\":6319:6344   */\n      gt\n        /* \"#utility.yul\":6316:6428   */\n      iszero\n      tag_180\n      jumpi\n        /* \"#utility.yul\":6347:6426   */\n      tag_181\n      tag_82\n      jump\t// in\n    tag_181:\n        /* \"#utility.yul\":6316:6428   */\n    tag_180:\n        /* \"#utility.yul\":6437:6491   */\n      tag_182\n        /* \"#utility.yul\":6484:6490   */\n      dup5\n        /* \"#utility.yul\":6479:6482   */\n      dup3\n        /* \"#utility.yul\":6474:6477   */\n      dup6\n        /* \"#utility.yul\":6437:6491   */\n      tag_87\n      jump\t// in\n    tag_182:\n        /* \"#utility.yul\":6156:6497   */\n      pop\n        /* \"#utility.yul\":6072:6497   */\n      swap4\n      swap3\n      pop\n      pop\n      pop\n      jump\t// out\n        /* \"#utility.yul\":6517:6857   */\n    tag_89:\n        /* \"#utility.yul\":6573:6578   */\n      0x00\n        /* \"#utility.yul\":6622:6625   */\n      dup3\n        /* \"#utility.yul\":6615:6619   */\n      0x1f\n        /* \"#utility.yul\":6607:6613   */\n      dup4\n        /* \"#utility.yul\":6603:6620   */\n      add\n        /* \"#utility.yul\":6599:6626   */\n      slt\n        /* \"#utility.yul\":6589:6711   */\n      tag_184\n      jumpi\n        /* \"#utility.yul\":6630:6709   */\n      tag_185\n      tag_81\n      jump\t// in\n    tag_185:\n        /* \"#utility.yul\":6589:6711   */\n    tag_184:\n        /* \"#utility.yul\":6747:6753   */\n      dup2\n        /* \"#utility.yul\":6734:6754   */\n      calldataload\n        /* \"#utility.yul\":6772:6851   */\n      tag_186\n        /* \"#utility.yul\":6847:6850   */\n      dup5\n        /* \"#utility.yul\":6839:6845   */\n      dup3\n        /* \"#utility.yul\":6832:6836   */\n      0x20\n        /* \"#utility.yul\":6824:6830   */\n      dup7\n        /* \"#utility.yul\":6820:6837   */\n      add\n        /* \"#utility.yul\":6772:6851   */\n      tag_88\n      jump\t// in\n    tag_186:\n        /* \"#utility.yul\":6763:6851   */\n      swap2\n      pop\n        /* \"#utility.yul\":6579:6857   */\n      pop\n        /* \"#utility.yul\":6517:6857   */\n      swap3\n      swap2\n      pop\n      pop\n      jump\t// out\n        /* \"#utility.yul\":6863:7517   */\n    tag_33:\n        /* \"#utility.yul\":6941:6947   */\n      0x00\n        /* \"#utility.yul\":6949:6955   */\n      0x00\n        /* \"#utility.yul\":6998:7000   */\n      0x40\n        /* \"#utility.yul\":6986:6995   */\n      dup4\n        /* \"#utility.yul\":6977:6984   */\n      dup6\n        /* \"#utility.yul\":6973:6996   */\n      sub\n        /* \"#utility.yul\":6969:7001   */\n      slt\n        /* \"#utility.yul\":6966:7085   */\n      iszero\n      tag_188\n      jumpi\n        /* \"#utility.yul\":7004:7083   */\n      tag_189\n      tag_63\n      jump\t// in\n    tag_189:\n        /* \"#utility.yul\":6966:7085   */\n    tag_188:\n        /* \"#utility.yul\":7124:7125   */\n      0x00\n        /* \"#utility.yul\":7149:7202   */\n      tag_190\n        /* \"#utility.yul\":7194:7201   */\n      dup6\n        /* \"#utility.yul\":7185:7191   */\n      dup3\n        /* \"#utility.yul\":7174:7183   */\n      dup7\n        /* \"#utility.yul\":7170:7192   */\n      add\n        /* \"#utility.yul\":7149:7202   */\n      tag_80\n      jump\t// in\n    tag_190:\n        /* \"#utility.yul\":7139:7202   */\n      swap3\n      pop\n        /* \"#utility.yul\":7095:7212   */\n      pop\n        /* \"#utility.yul\":7279:7281   */\n      0x20\n        /* \"#utility.yul\":7268:7277   */\n      dup4\n        /* \"#utility.yul\":7264:7282   */\n      add\n        /* \"#utility.yul\":7251:7283   */\n      calldataload\n        /* \"#utility.yul\":7310:7328   */\n      0xffffffffffffffff\n        /* \"#utility.yul\":7302:7308   */\n      dup2\n        /* \"#utility.yul\":7299:7329   */\n      gt\n        /* \"#utility.yul\":7296:7413   */\n      iszero\n      tag_191\n      jumpi\n        /* \"#utility.yul\":7332:7411   */\n      tag_192\n      tag_64\n      jump\t// in\n    tag_192:\n        /* \"#utility.yul\":7296:7413   */\n    tag_191:\n        /* \"#utility.yul\":7437:7500   */\n      tag_193\n        /* \"#utility.yul\":7492:7499   */\n      dup6\n        /* \"#utility.yul\":7483:7489   */\n      dup3\n        /* \"#utility.yul\":7472:7481   */\n      dup7\n        /* \"#utility.yul\":7468:7490   */\n      add\n        /* \"#utility.yul\":7437:7500   */\n      tag_89\n      jump\t// in\n    tag_193:\n        /* \"#utility.yul\":7427:7500   */\n      swap2\n      pop\n        /* \"#utility.yul\":7222:7510   */\n      pop\n        /* \"#utility.yul\":6863:7517   */\n      swap3\n      pop\n      swap3\n      swap1\n      pop\n      jump\t// out\n        /* \"#utility.yul\":7523:7745   */\n    tag_90:\n        /* \"#utility.yul\":7663:7697   */\n      0x48616e79612061646d696e2079616e672062697361206d656c616b756b616e20\n        /* \"#utility.yul\":7659:7660   */\n      0x00\n        /* \"#utility.yul\":7651:7657   */\n      dup3\n        /* \"#utility.yul\":7647:7661   */\n      add\n        /* \"#utility.yul\":7640:7698   */\n      mstore\n        /* \"#utility.yul\":7732:7737   */\n      0x696e690000000000000000000000000000000000000000000000000000000000\n        /* \"#utility.yul\":7727:7729   */\n      0x20\n        /* \"#utility.yul\":7719:7725   */\n      dup3\n        /* \"#utility.yul\":7715:7730   */\n      add\n        /* \"#utility.yul\":7708:7738   */\n      mstore\n        /* \"#utility.yul\":7523:7745   */\n      pop\n      jump\t// out\n        /* \"#utility.yul\":7751:8117   */\n    tag_91:\n        /* \"#utility.yul\":7893:7896   */\n      0x00\n        /* \"#utility.yul\":7914:7981   */\n      tag_196\n        /* \"#utility.yul\":7978:7980   */\n      0x23\n        /* \"#utility.yul\":7973:7976   */\n      dup4\n        /* \"#utility.yul\":7914:7981   */\n      tag_69\n      jump\t// in\n    tag_196:\n        /* \"#utility.yul\":7907:7981   */\n      swap2\n      pop\n        /* \"#utility.yul\":7990:8083   */\n      tag_197\n        /* \"#utility.yul\":8079:8082   */\n      dup3\n        /* \"#utility.yul\":7990:8083   */\n      tag_90\n      jump\t// in\n    tag_197:\n        /* \"#utility.yul\":8108:8110   */\n      0x40\n        /* \"#utility.yul\":8103:8106   */\n      dup3\n        /* \"#utility.yul\":8099:8111   */\n      add\n        /* \"#utility.yul\":8092:8111   */\n      swap1\n      pop\n        /* \"#utility.yul\":7751:8117   */\n      swap2\n      swap1\n      pop\n      jump\t// out\n        /* \"#utility.yul\":8123:8542   */\n    tag_38:\n        /* \"#utility.yul\":8289:8293   */\n      0x00\n        /* \"#utility.yul\":8327:8329   */\n      0x20\n        /* \"#utility.yul\":8316:8325   */\n      dup3\n        /* \"#utility.yul\":8312:8330   */\n      add\n        /* \"#utility.yul\":8304:8330   */\n      swap1\n      pop\n        /* \"#utility.yul\":8376:8385   */\n      dup2\n        /* \"#utility.yul\":8370:8374   */\n      dup2\n        /* \"#utility.yul\":8366:8386   */\n      sub\n        /* \"#utility.yul\":8362:8363   */\n      0x00\n        /* \"#utility.yul\":8351:8360   */\n      dup4\n        /* \"#utility.yul\":8347:8364   */\n      add\n        /* \"#utility.yul\":8340:8387   */\n      mstore\n        /* \"#utility.yul\":8404:8535   */\n      tag_199\n        /* \"#utility.yul\":8530:8534   */\n      dup2\n        /* \"#utility.yul\":8404:8535   */\n      tag_91\n      jump\t// in\n    tag_199:\n        /* \"#utility.yul\":8396:8535   */\n      swap1\n      pop\n        /* \"#utility.yul\":8123:8542   */\n      swap2\n      swap1\n      pop\n      jump\t// out\n        /* \"#utility.yul\":8548:8728   */\n    tag_92:\n        /* \"#utility.yul\":8596:8673   */\n      0x4e487b7100000000000000000000000000000000000000000000000000000000\n        /* \"#utility.yul\":8593:8594   */\n      0x00\n        /* \"#utility.yul\":8586:8674   */\n      mstore\n        /* \"#utility.yul\":8693:8697   */\n      0x22\n        /* \"#utility.yul\":8690:8691   */\n      0x04\n        /* \"#utility.yul\":8683:8698   */\n      mstore\n        /* \"#utility.yul\":8717:8721   */\n      0x24\n        /* \"#utility.yul\":8714:8715   */\n      0x00\n        /* \"#utility.yul\":8707:8722   */\n      revert\n        /* \"#utility.yul\":8734:9054   */\n    tag_42:\n        /* \"#utility.yul\":8778:8784   */\n      0x00\n        /* \"#utility.yul\":8815:8816   */\n      0x02\n        /* \"#utility.yul\":8809:8813   */\n      dup3\n        /* \"#utility.yul\":8805:8817   */\n      div\n        /* \"#utility.yul\":8795:8817   */\n      swap1\n      pop\n        /* \"#utility.yul\":8862:8863   */\n      0x01\n        /* \"#utility.yul\":8856:8860   */\n      dup3\n        /* \"#utility.yul\":8852:8864   */\n      and\n        /* \"#utility.yul\":8883:8901   */\n      dup1\n        /* \"#utility.yul\":8873:8954   */\n      tag_202\n      jumpi\n        /* \"#utility.yul\":8939:8943   */\n      0x7f\n        /* \"#utility.yul\":8931:8937   */\n      dup3\n        /* \"#utility.yul\":8927:8944   */\n      and\n        /* \"#utility.yul\":8917:8944   */\n      swap2\n      pop\n        /* \"#utility.yul\":8873:8954   */\n    tag_202:\n        /* \"#utility.yul\":9001:9003   */\n      0x20\n        /* \"#utility.yul\":8993:8999   */\n      dup3\n        /* \"#utility.yul\":8990:9004   */\n      lt\n        /* \"#utility.yul\":8970:8988   */\n      dup2\n        /* \"#utility.yul\":8967:9005   */\n      sub\n        /* \"#utility.yul\":8964:9048   */\n      tag_203\n      jumpi\n        /* \"#utility.yul\":9020:9038   */\n      tag_204\n      tag_92\n      jump\t// in\n    tag_204:\n        /* \"#utility.yul\":8964:9048   */\n    tag_203:\n        /* \"#utility.yul\":8785:9054   */\n      pop\n        /* \"#utility.yul\":8734:9054   */\n      swap2\n      swap1\n      pop\n      jump\t// out\n        /* \"#utility.yul\":9060:9240   */\n    tag_93:\n        /* \"#utility.yul\":9108:9185   */\n      0x4e487b7100000000000000000000000000000000000000000000000000000000\n        /* \"#utility.yul\":9105:9106   */\n      0x00\n        /* \"#utility.yul\":9098:9186   */\n      mstore\n        /* \"#utility.yul\":9205:9209   */\n      0x11\n        /* \"#utility.yul\":9202:9203   */\n      0x04\n        /* \"#utility.yul\":9195:9210   */\n      mstore\n        /* \"#utility.yul\":9229:9233   */\n      0x24\n        /* \"#utility.yul\":9226:9227   */\n      0x00\n        /* \"#utility.yul\":9219:9234   */\n      revert\n        /* \"#utility.yul\":9246:9479   */\n    tag_57:\n        /* \"#utility.yul\":9285:9288   */\n      0x00\n        /* \"#utility.yul\":9308:9332   */\n      tag_207\n        /* \"#utility.yul\":9326:9331   */\n      dup3\n        /* \"#utility.yul\":9308:9332   */\n      tag_65\n      jump\t// in\n    tag_207:\n        /* \"#utility.yul\":9299:9332   */\n      swap2\n      pop\n        /* \"#utility.yul\":9354:9420   */\n      0xffffffffffffffffffffffffffffffffffffffffffffffffffffffffffffffff\n        /* \"#utility.yul\":9347:9352   */\n      dup3\n        /* \"#utility.yul\":9344:9421   */\n      sub\n        /* \"#utility.yul\":9341:9444   */\n      tag_208\n      jumpi\n        /* \"#utility.yul\":9424:9442   */\n      tag_209\n      tag_93\n      jump\t// in\n    tag_209:\n        /* \"#utility.yul\":9341:9444   */\n    tag_208:\n        /* \"#utility.yul\":9471:9472   */\n      0x01\n        /* \"#utility.yul\":9464:9469   */\n      dup3\n        /* \"#utility.yul\":9460:9473   */\n      add\n        /* \"#utility.yul\":9453:9473   */\n      swap1\n      pop\n        /* \"#utility.yul\":9246:9479   */\n      swap2\n      swap1\n      pop\n      jump\t// out\n        /* \"#utility.yul\":9485:9626   */\n    tag_94:\n        /* \"#utility.yul\":9534:9538   */\n      0x00\n        /* \"#utility.yul\":9557:9560   */\n      dup2\n        /* \"#utility.yul\":9549:9560   */\n      swap1\n      pop\n        /* \"#utility.yul\":9580:9583   */\n      dup2\n        /* \"#utility.yul\":9577:9578   */\n      0x00\n        /* \"#utility.yul\":9570:9584   */\n      mstore\n        /* \"#utility.yul\":9614:9618   */\n      0x20\n        /* \"#utility.yul\":9611:9612   */\n      0x00\n        /* \"#utility.yul\":9601:9619   */\n      keccak256\n        /* \"#utility.yul\":9593:9619   */\n      swap1\n      pop\n        /* \"#utility.yul\":9485:9626   */\n      swap2\n      swap1\n      pop\n      jump\t// out\n        /* \"#utility.yul\":9632:9725   */\n    tag_95:\n        /* \"#utility.yul\":9669:9675   */\n      0x00\n        /* \"#utility.yul\":9716:9718   */\n      0x20\n        /* \"#utility.yul\":9711:9713   */\n      0x1f\n        /* \"#utility.yul\":9704:9709   */\n      dup4\n        /* \"#utility.yul\":9700:9714   */\n      add\n        /* \"#utility.yul\":9696:9719   */\n      div\n        /* \"#utility.yul\":9686:9719   */\n      swap1\n      pop\n        /* \"#utility.yul\":9632:9725   */\n      swap2\n      swap1\n      pop\n      jump\t// out\n        /* \"#utility.yul\":9731:9838   */\n    tag_96:\n        /* \"#utility.yul\":9775:9783   */\n      0x00\n        /* \"#utility.yul\":9825:9830   */\n      dup3\n        /* \"#utility.yul\":9819:9823   */\n      dup3\n        /* \"#utility.yul\":9815:9831   */\n      shl\n        /* \"#utility.yul\":9794:9831   */\n      swap1\n      pop\n        /* \"#utility.yul\":9731:9838   */\n      swap3\n      swap2\n      pop\n      pop\n      jump\t// out\n        /* \"#utility.yul\":9844:10237   */\n    tag_97:\n        /* \"#utility.yul\":9913:9919   */\n      0x00\n        /* \"#utility.yul\":9963:9964   */\n      0x08\n        /* \"#utility.yul\":9951:9961   */\n      dup4\n        /* \"#utility.yul\":9947:9965   */\n      mul\n        /* \"#utility.yul\":9986:10083   */\n      tag_214\n        /* \"#utility.yul\":10016:10082   */\n      0xffffffffffffffffffffffffffffffffffffffffffffffffffffffffffffffff\n        /* \"#utility.yul\":10005:10014   */\n      dup3\n        /* \"#utility.yul\":9986:10083   */\n      tag_96\n      jump\t// in\n    tag_214:\n        /* \"#utility.yul\":10104:10143   */\n      tag_215\n        /* \"#utility.yul\":10134:10142   */\n      dup7\n        /* \"#utility.yul\":10123:10132   */\n      dup4\n        /* \"#utility.yul\":10104:10143   */\n      tag_96\n      jump\t// in\n    tag_215:\n        /* \"#utility.yul\":10092:10143   */\n      swap6\n      pop\n        /* \"#utility.yul\":10176:10180   */\n      dup1\n        /* \"#utility.yul\":10172:10181   */\n      not\n        /* \"#utility.yul\":10165:10170   */\n      dup5\n        /* \"#utility.yul\":10161:10182   */\n      and\n        /* \"#utility.yul\":10152:10182   */\n      swap4\n      pop\n        /* \"#utility.yul\":10225:10229   */\n      dup1\n        /* \"#utility.yul\":10215:10223   */\n      dup7\n        /* \"#utility.yul\":10211:10230   */\n      and\n        /* \"#utility.yul\":10204:10209   */\n      dup5\n        /* \"#utility.yul\":10201:10231   */\n      or\n        /* \"#utility.yul\":10191:10231   */\n      swap3\n      pop\n        /* \"#utility.yul\":9920:10237   */\n      pop\n      pop\n        /* \"#utility.yul\":9844:10237   */\n      swap4\n      swap3\n      pop\n      pop\n      pop\n      jump\t// out\n        /* \"#utility.yul\":10243:10303   */\n    tag_98:\n        /* \"#utility.yul\":10271:10274   */\n      0x00\n        /* \"#utility.yul\":10292:10297   */\n      dup2\n        /* \"#utility.yul\":10285:10297   */\n      swap1\n      pop\n        /* \"#utility.yul\":10243:10303   */\n      swap2\n      swap1\n      pop\n      jump\t// out\n        /* \"#utility.yul\":10309:10451   */\n    tag_99:\n        /* \"#utility.yul\":10359:10368   */\n      0x00\n        /* \"#utility.yul\":10392:10445   */\n      tag_218\n        /* \"#utility.yul\":10410:10444   */\n      tag_219\n        /* \"#utility.yul\":10419:10443   */\n      tag_220\n        /* \"#utility.yul\":10437:10442   */\n      dup5\n        /* \"#utility.yul\":10419:10443   */\n      tag_65\n      jump\t// in\n    tag_220:\n        /* \"#utility.yul\":10410:10444   */\n      tag_98\n      jump\t// in\n    tag_219:\n        /* \"#utility.yul\":10392:10445   */\n      tag_65\n      jump\t// in\n    tag_218:\n        /* \"#utility.yul\":10379:10445   */\n      swap1\n      pop\n        /* \"#utility.yul\":10309:10451   */\n      swap2\n      swap1\n      pop\n      jump\t// out\n        /* \"#utility.yul\":10457:10532   */\n    tag_100:\n        /* \"#utility.yul\":10500:10503   */\n      0x00\n        /* \"#utility.yul\":10521:10526   */\n      dup2\n        /* \"#utility.yul\":10514:10526   */\n      swap1\n      pop\n        /* \"#utility.yul\":10457:10532   */\n      swap2\n      swap1\n      pop\n      jump\t// out\n        /* \"#utility.yul\":10538:10807   */\n    tag_101:\n        /* \"#utility.yul\":10648:10687   */\n      tag_223\n        /* \"#utility.yul\":10679:10686   */\n      dup4\n        /* \"#utility.yul\":10648:10687   */\n      tag_99\n      jump\t// in\n    tag_223:\n        /* \"#utility.yul\":10709:10800   */\n      tag_224\n        /* \"#utility.yul\":10758:10799   */\n      tag_225\n        /* \"#utility.yul\":10782:10798   */\n      dup3\n        /* \"#utility.yul\":10758:10799   */\n      tag_100\n      jump\t// in\n    tag_225:\n        /* \"#utility.yul\":10750:10756   */\n      dup5\n        /* \"#utility.yul\":10743:10747   */\n      dup5\n        /* \"#utility.yul\":10737:10748   */\n      sload\n        /* \"#utility.yul\":10709:10800   */\n      tag_97\n      jump\t// in\n    tag_224:\n        /* \"#utility.yul\":10703:10707   */\n      dup3\n        /* \"#utility.yul\":10696:10801   */\n      sstore\n        /* \"#utility.yul\":10614:10807   */\n      pop\n        /* \"#utility.yul\":10538:10807   */\n      pop\n      pop\n      pop\n      jump\t// out\n        /* \"#utility.yul\":10813:10886   */\n    tag_102:\n        /* \"#utility.yul\":10858:10861   */\n      0x00\n        /* \"#utility.yul\":10879:10880   */\n      0x00\n        /* \"#utility.yul\":10872:10880   */\n      swap1\n      pop\n        /* \"#utility.yul\":10813:10886   */\n      swap1\n      jump\t// out\n        /* \"#utility.yul\":10892:11081   */\n    tag_103:\n        /* \"#utility.yul\":10969:11001   */\n      tag_228\n      tag_102\n      jump\t// in\n    tag_228:\n        /* \"#utility.yul\":11010:11075   */\n      tag_229\n        /* \"#utility.yul\":11068:11074   */\n      dup2\n        /* \"#utility.yul\":11060:11066   */\n      dup5\n        /* \"#utility.yul\":11054:11058   */\n      dup5\n        /* \"#utility.yul\":11010:11075   */\n      tag_101\n      jump\t// in\n    tag_229:\n        /* \"#utility.yul\":10945:11081   */\n      pop\n        /* \"#utility.yul\":10892:11081   */\n      pop\n      pop\n      jump\t// out\n        /* \"#utility.yul\":11087:11301   */\n    tag_104:\n        /* \"#utility.yul\":11172:11173   */\n      0x00\n        /* \"#utility.yul\":11157:11295   */\n    tag_231:\n        /* \"#utility.yul\":11182:11191   */\n      dup3\n        /* \"#utility.yul\":11179:11180   */\n      dup2\n        /* \"#utility.yul\":11176:11192   */\n      lt\n        /* \"#utility.yul\":11157:11295   */\n      iszero\n      tag_233\n      jumpi\n        /* \"#utility.yul\":11234:11285   */\n      tag_234\n        /* \"#utility.yul\":11283:11284   */\n      0x00\n        /* \"#utility.yul\":11279:11280   */\n      dup3\n        /* \"#utility.yul\":11268:11277   */\n      dup5\n        /* \"#utility.yul\":11264:11281   */\n      add\n        /* \"#utility.yul\":11234:11285   */\n      tag_103\n      jump\t// in\n    tag_234:\n        /* \"#utility.yul\":11207:11208   */\n      0x01\n        /* \"#utility.yul\":11204:11205   */\n      dup2\n        /* \"#utility.yul\":11200:11209   */\n      add\n        /* \"#utility.yul\":11195:11209   */\n      swap1\n      pop\n        /* \"#utility.yul\":11157:11295   */\n      jump(tag_231)\n    tag_233:\n        /* \"#utility.yul\":11161:11175   */\n      pop\n        /* \"#utility.yul\":11087:11301   */\n      pop\n      pop\n      jump\t// out\n        /* \"#utility.yul\":11307:12053   */\n    tag_105:\n        /* \"#utility.yul\":11408:11410   */\n      0x1f\n        /* \"#utility.yul\":11403:11406   */\n      dup3\n        /* \"#utility.yul\":11400:11411   */\n      gt\n        /* \"#utility.yul\":11397:12046   */\n      iszero\n      tag_236\n      jumpi\n        /* \"#utility.yul\":11437:11447   */\n      dup3\n        /* \"#utility.yul\":11432:11435   */\n      dup3\n        /* \"#utility.yul\":11429:11448   */\n      gt\n        /* \"#utility.yul\":11426:12036   */\n      iszero\n      tag_237\n      jumpi\n        /* \"#utility.yul\":11483:11521   */\n      tag_238\n        /* \"#utility.yul\":11515:11520   */\n      dup2\n        /* \"#utility.yul\":11483:11521   */\n      tag_94\n      jump\t// in\n    tag_238:\n        /* \"#utility.yul\":11558:11580   */\n      tag_239\n        /* \"#utility.yul\":11576:11579   */\n      dup4\n        /* \"#utility.yul\":11558:11580   */\n      tag_95\n      jump\t// in\n    tag_239:\n        /* \"#utility.yul\":11617:11646   */\n      tag_240\n        /* \"#utility.yul\":11635:11645   */\n      dup6\n        /* \"#utility.yul\":11617:11646   */\n      tag_95\n      jump\t// in\n    tag_240:\n        /* \"#utility.yul\":11807:11809   */\n      0x20\n        /* \"#utility.yul\":11795:11805   */\n      dup7\n        /* \"#utility.yul\":11792:11810   */\n      lt\n        /* \"#utility.yul\":11789:11868   */\n      iszero\n      tag_241\n      jumpi\n        /* \"#utility.yul\":11849:11850   */\n      0x00\n        /* \"#utility.yul\":11833:11850   */\n      swap1\n      pop\n        /* \"#utility.yul\":11789:11868   */\n    tag_241:\n        /* \"#utility.yul\":11918:11930   */\n      dup1\n        /* \"#utility.yul\":11908:11916   */\n      dup4\n        /* \"#utility.yul\":11904:11931   */\n      add\n        /* \"#utility.yul\":11948:12022   */\n      tag_242\n        /* \"#utility.yul\":12008:12020   */\n      dup3\n        /* \"#utility.yul\":11994:12006   */\n      dup5\n        /* \"#utility.yul\":11990:12021   */\n      sub\n        /* \"#utility.yul\":11977:11988   */\n      dup3\n        /* \"#utility.yul\":11948:12022   */\n      tag_104\n      jump\t// in\n    tag_242:\n        /* \"#utility.yul\":11449:12036   */\n      pop\n      pop\n      pop\n      pop\n        /* \"#utility.yul\":11426:12036   */\n    tag_237:\n        /* \"#utility.yul\":11397:12046   */\n    tag_236:\n        /* \"#utility.yul\":11307:12053   */\n      pop\n      pop\n      pop\n      jump\t// out\n        /* \"#utility.yul\":12059:12176   */\n    tag_106:\n        /* \"#utility.yul\":12113:12121   */\n      0x00\n        /* \"#utility.yul\":12163:12168   */\n      dup3\n        /* \"#utility.yul\":12157:12161   */\n      dup3\n        /* \"#utility.yul\":12153:12169   */\n      shr\n        /* \"#utility.yul\":12132:12169   */\n      swap1\n      pop\n        /* \"#utility.yul\":12059:12176   */\n      swap3\n      swap2\n      pop\n      pop\n      jump\t// out\n        /* \"#utility.yul\":12182:12351   */\n    tag_107:\n        /* \"#utility.yul\":12226:12232   */\n      0x00\n        /* \"#utility.yul\":12259:12310   */\n      tag_245\n        /* \"#utility.yul\":12307:12308   */\n      0x00\n        /* \"#utility.yul\":12303:12309   */\n      not\n        /* \"#utility.yul\":12295:12300   */\n      dup5\n        /* \"#utility.yul\":12292:12293   */\n      0x08\n        /* \"#utility.yul\":12288:12301   */\n      mul\n        /* \"#utility.yul\":12259:12310   */\n      tag_106\n      jump\t// in\n    tag_245:\n        /* \"#utility.yul\":12255:12311   */\n      not\n        /* \"#utility.yul\":12340:12344   */\n      dup1\n        /* \"#utility.yul\":12334:12338   */\n      dup4\n        /* \"#utility.yul\":12330:12345   */\n      and\n        /* \"#utility.yul\":12320:12345   */\n      swap2\n      pop\n        /* \"#utility.yul\":12233:12351   */\n      pop\n        /* \"#utility.yul\":12182:12351   */\n      swap3\n      swap2\n      pop\n      pop\n      jump\t// out\n        /* \"#utility.yul\":12356:12651   */\n    tag_108:\n        /* \"#utility.yul\":12432:12436   */\n      0x00\n        /* \"#utility.yul\":12578:12607   */\n      tag_247\n        /* \"#utility.yul\":12603:12606   */\n      dup4\n        /* \"#utility.yul\":12597:12601   */\n      dup4\n        /* \"#utility.yul\":12578:12607   */\n      tag_107\n      jump\t// in\n    tag_247:\n        /* \"#utility.yul\":12570:12607   */\n      swap2\n      pop\n        /* \"#utility.yul\":12640:12643   */\n      dup3\n        /* \"#utility.yul\":12637:12638   */\n      0x02\n        /* \"#utility.yul\":12633:12644   */\n      mul\n        /* \"#utility.yul\":12627:12631   */\n      dup3\n        /* \"#utility.yul\":12624:12645   */\n      or\n        /* \"#utility.yul\":12616:12645   */\n      swap1\n      pop\n        /* \"#utility.yul\":12356:12651   */\n      swap3\n      swap2\n      pop\n      pop\n      jump\t// out\n        /* \"#utility.yul\":12656:14051   */\n    tag_59:\n        /* \"#utility.yul\":12773:12810   */\n      tag_249\n        /* \"#utility.yul\":12806:12809   */\n      dup3\n        /* \"#utility.yul\":12773:12810   */\n      tag_68\n      jump\t// in\n    tag_249:\n        /* \"#utility.yul\":12875:12893   */\n      0xffffffffffffffff\n        /* \"#utility.yul\":12867:12873   */\n      dup2\n        /* \"#utility.yul\":12864:12894   */\n      gt\n        /* \"#utility.yul\":12861:12917   */\n      iszero\n      tag_250\n      jumpi\n        /* \"#utility.yul\":12897:12915   */\n      tag_251\n      tag_83\n      jump\t// in\n    tag_251:\n        /* \"#utility.yul\":12861:12917   */\n    tag_250:\n        /* \"#utility.yul\":12941:12979   */\n      tag_252\n        /* \"#utility.yul\":12973:12977   */\n      dup3\n        /* \"#utility.yul\":12967:12978   */\n      sload\n        /* \"#utility.yul\":12941:12979   */\n      tag_42\n      jump\t// in\n    tag_252:\n        /* \"#utility.yul\":13026:13093   */\n      tag_253\n        /* \"#utility.yul\":13086:13092   */\n      dup3\n        /* \"#utility.yul\":13078:13084   */\n      dup3\n        /* \"#utility.yul\":13072:13076   */\n      dup6\n        /* \"#utility.yul\":13026:13093   */\n      tag_105\n      jump\t// in\n    tag_253:\n        /* \"#utility.yul\":13120:13121   */\n      0x00\n        /* \"#utility.yul\":13144:13148   */\n      0x20\n        /* \"#utility.yul\":13131:13148   */\n      swap1\n      pop\n        /* \"#utility.yul\":13176:13178   */\n      0x1f\n        /* \"#utility.yul\":13168:13174   */\n      dup4\n        /* \"#utility.yul\":13165:13179   */\n      gt\n        /* \"#utility.yul\":13193:13194   */\n      0x01\n        /* \"#utility.yul\":13188:13806   */\n      dup2\n      eq\n      tag_255\n      jumpi\n        /* \"#utility.yul\":13850:13851   */\n      0x00\n        /* \"#utility.yul\":13867:13873   */\n      dup5\n        /* \"#utility.yul\":13864:13941   */\n      iszero\n      tag_256\n      jumpi\n        /* \"#utility.yul\":13916:13925   */\n      dup3\n        /* \"#utility.yul\":13911:13914   */\n      dup8\n        /* \"#utility.yul\":13907:13926   */\n      add\n        /* \"#utility.yul\":13901:13927   */\n      mload\n        /* \"#utility.yul\":13892:13927   */\n      swap1\n      pop\n        /* \"#utility.yul\":13864:13941   */\n    tag_256:\n        /* \"#utility.yul\":13967:14034   */\n      tag_257\n        /* \"#utility.yul\":14027:14033   */\n      dup6\n        /* \"#utility.yul\":14020:14025   */\n      dup3\n        /* \"#utility.yul\":13967:14034   */\n      tag_108\n      jump\t// in\n    tag_257:\n        /* \"#utility.yul\":13961:13965   */\n      dup7\n        /* \"#utility.yul\":13954:14035   */\n      sstore\n        /* \"#utility.yul\":13823:14045   */\n      pop\n        /* \"#utility.yul\":13158:14045   */\n      jump(tag_254)\n        /* \"#utility.yul\":13188:13806   */\n    tag_255:\n        /* \"#utility.yul\":13240:13244   */\n      0x1f\n        /* \"#utility.yul\":13236:13245   */\n      not\n        /* \"#utility.yul\":13228:13234   */\n      dup5\n        /* \"#utility.yul\":13224:13246   */\n      and\n        /* \"#utility.yul\":13274:13311   */\n      tag_258\n        /* \"#utility.yul\":13306:13310   */\n      dup7\n        /* \"#utility.yul\":13274:13311   */\n      tag_94\n      jump\t// in\n    tag_258:\n        /* \"#utility.yul\":13333:13334   */\n      0x00\n        /* \"#utility.yul\":13347:13555   */\n    tag_259:\n        /* \"#utility.yul\":13361:13368   */\n      dup3\n        /* \"#utility.yul\":13358:13359   */\n      dup2\n        /* \"#utility.yul\":13355:13369   */\n      lt\n        /* \"#utility.yul\":13347:13555   */\n      iszero\n      tag_261\n      jumpi\n        /* \"#utility.yul\":13440:13449   */\n      dup5\n        /* \"#utility.yul\":13435:13438   */\n      dup10\n        /* \"#utility.yul\":13431:13450   */\n      add\n        /* \"#utility.yul\":13425:13451   */\n      mload\n        /* \"#utility.yul\":13417:13423   */\n      dup3\n        /* \"#utility.yul\":13410:13452   */\n      sstore\n        /* \"#utility.yul\":13491:13492   */\n      0x01\n        /* \"#utility.yul\":13483:13489   */\n      dup3\n        /* \"#utility.yul\":13479:13493   */\n      add\n        /* \"#utility.yul\":13469:13493   */\n      swap2\n      pop\n        /* \"#utility.yul\":13538:13540   */\n      0x20\n        /* \"#utility.yul\":13527:13536   */\n      dup6\n        /* \"#utility.yul\":13523:13541   */\n      add\n        /* \"#utility.yul\":13510:13541   */\n      swap5\n      pop\n        /* \"#utility.yul\":13384:13388   */\n      0x20\n        /* \"#utility.yul\":13381:13382   */\n      dup2\n        /* \"#utility.yul\":13377:13389   */\n      add\n        /* \"#utility.yul\":13372:13389   */\n      swap1\n      pop\n        /* \"#utility.yul\":13347:13555   */\n      jump(tag_259)\n    tag_261:\n        /* \"#utility.yul\":13583:13589   */\n      dup7\n        /* \"#utility.yul\":13574:13581   */\n      dup4\n        /* \"#utility.yul\":13571:13590   */\n      lt\n        /* \"#utility.yul\":13568:13747   */\n      iszero\n      tag_262\n      jumpi\n        /* \"#utility.yul\":13641:13650   */\n      dup5\n        /* \"#utility.yul\":13636:13639   */\n      dup10\n        /* \"#utility.yul\":13632:13651   */\n      add\n        /* \"#utility.yul\":13626:13652   */\n      mload\n        /* \"#utility.yul\":13684:13732   */\n      tag_263\n        /* \"#utility.yul\":13726:13730   */\n      0x1f\n        /* \"#utility.yul\":13718:13724   */\n      dup10\n        /* \"#utility.yul\":13714:13731   */\n      and\n        /* \"#utility.yul\":13703:13712   */\n      dup3\n        /* \"#utility.yul\":13684:13732   */\n      tag_107\n      jump\t// in\n    tag_263:\n        /* \"#utility.yul\":13676:13682   */\n      dup4\n        /* \"#utility.yul\":13669:13733   */\n      sstore\n        /* \"#utility.yul\":13591:13747   */\n      pop\n        /* \"#utility.yul\":13568:13747   */\n    tag_262:\n        /* \"#utility.yul\":13793:13794   */\n      0x01\n        /* \"#utility.yul\":13789:13790   */\n      0x02\n        /* \"#utility.yul\":13781:13787   */\n      dup9\n        /* \"#utility.yul\":13777:13791   */\n      mul\n        /* \"#utility.yul\":13773:13795   */\n      add\n        /* \"#utility.yul\":13767:13771   */\n      dup9\n        /* \"#utility.yul\":13760:13796   */\n      sstore\n        /* \"#utility.yul\":13195:13806   */\n      pop\n      pop\n      pop\n        /* \"#utility.yul\":13158:14045   */\n    tag_254:\n      pop\n        /* \"#utility.yul\":12748:14051   */\n      pop\n      pop\n      pop\n        /* \"#utility.yul\":12656:14051   */\n      pop\n      pop\n      jump\t// out\n        /* \"#utility.yul\":14057:14590   */\n    tag_61:\n        /* \"#utility.yul\":14226:14230   */\n      0x00\n        /* \"#utility.yul\":14264:14266   */\n      0x60\n        /* \"#utility.yul\":14253:14262   */\n      dup3\n        /* \"#utility.yul\":14249:14267   */\n      add\n        /* \"#utility.yul\":14241:14267   */\n      swap1\n      pop\n        /* \"#utility.yul\":14277:14348   */\n      tag_265\n        /* \"#utility.yul\":14345:14346   */\n      0x00\n        /* \"#utility.yul\":14334:14343   */\n      dup4\n        /* \"#utility.yul\":14330:14347   */\n      add\n        /* \"#utility.yul\":14321:14327   */\n      dup7\n        /* \"#utility.yul\":14277:14348   */\n      tag_76\n      jump\t// in\n    tag_265:\n        /* \"#utility.yul\":14395:14404   */\n      dup2\n        /* \"#utility.yul\":14389:14393   */\n      dup2\n        /* \"#utility.yul\":14385:14405   */\n      sub\n        /* \"#utility.yul\":14380:14382   */\n      0x20\n        /* \"#utility.yul\":14369:14378   */\n      dup4\n        /* \"#utility.yul\":14365:14383   */\n      add\n        /* \"#utility.yul\":14358:14406   */\n      mstore\n        /* \"#utility.yul\":14423:14501   */\n      tag_266\n        /* \"#utility.yul\":14496:14500   */\n      dup2\n        /* \"#utility.yul\":14487:14493   */\n      dup6\n        /* \"#utility.yul\":14423:14501   */\n      tag_72\n      jump\t// in\n    tag_266:\n        /* \"#utility.yul\":14415:14501   */\n      swap1\n      pop\n        /* \"#utility.yul\":14511:14583   */\n      tag_267\n        /* \"#utility.yul\":14579:14581   */\n      0x40\n        /* \"#utility.yul\":14568:14577   */\n      dup4\n        /* \"#utility.yul\":14564:14582   */\n      add\n        /* \"#utility.yul\":14555:14561   */\n      dup5\n        /* \"#utility.yul\":14511:14583   */\n      tag_75\n      jump\t// in\n    tag_267:\n        /* \"#utility.yul\":14057:14590   */\n      swap5\n      swap4\n      pop\n      pop\n      pop\n      pop\n      jump\t// out\n\n    auxdata: 0xa2646970667358221220ea0ebb002a9189c23f91187f6f31ccdee3cd003f7a9fa621d97a513ce0e7f85864736f6c63430008220033\n}\n",
				"bytecode": {
					"linkReferences": {},
					"object": "60806040525f6001553480156012575f5ffd5b50335f5f6101000a81548173ffffffffffffffffffffffffffffffffffffffff021916908373ffffffffffffffffffffffffffffffffffffffff160217905550610e498061005f5f395ff3fe608060405234801561000f575f5ffd5b5060043610610060575f3560e01c806306f5497e146100645780631692a9421461008057806352d7b89c146100b3578063663b3e22146100d15780638da5cb5b14610105578063bb721aab14610123575b5f5ffd5b61007e60048036038101906100799190610671565b61013f565b005b61009a60048036038101906100959190610671565b6101fb565b6040516100aa9493929190610774565b60405180910390f35b6100bb610355565b6040516100c891906107be565b60405180910390f35b6100eb60048036038101906100e69190610671565b61035b565b6040516100fc9594939291906107d7565b60405180910390f35b61010d61043e565b60405161011a919061082f565b60405180910390f35b61013d6004803603810190610138919061099e565b610462565b005b5f5f9054906101000a900473ffffffffffffffffffffffffffffffffffffffff1673ffffffffffffffffffffffffffffffffffffffff163373ffffffffffffffffffffffffffffffffffffffff16146101cd576040517f08c379a00000000000000000000000000000000000000000000000000000000081526004016101c490610a68565b60405180910390fd5b5f60025f8381526020019081526020015f206004015f6101000a81548160ff02191690831515021790555050565b60605f5f5f5f60025f8781526020019081526020015f206040518060a00160405290815f820154815260200160018201805461023690610ab3565b80601f016020809104026020016040519081016040528092919081815260200182805461026290610ab3565b80156102ad5780601f10610284576101008083540402835291602001916102ad565b820191905f5260205f20905b81548152906001019060200180831161029057829003601f168201915b50505050508152602001600282015f9054906101000a900473ffffffffffffffffffffffffffffffffffffffff1673ffffffffffffffffffffffffffffffffffffffff1673ffffffffffffffffffffffffffffffffffffffff16815260200160038201548152602001600482015f9054906101000a900460ff161515151581525050905080602001518160400151826060015183608001519450945094509450509193509193565b60015481565b6002602052805f5260405f205f91509050805f01549080600101805461038090610ab3565b80601f01602080910402602001604051908101604052809291908181526020018280546103ac90610ab3565b80156103f75780601f106103ce576101008083540402835291602001916103f7565b820191905f5260205f20905b8154815290600101906020018083116103da57829003601f168201915b505050505090806002015f9054906101000a900473ffffffffffffffffffffffffffffffffffffffff1690806003015490806004015f9054906101000a900460ff16905085565b5f5f9054906101000a900473ffffffffffffffffffffffffffffffffffffffff1681565b5f5f9054906101000a900473ffffffffffffffffffffffffffffffffffffffff1673ffffffffffffffffffffffffffffffffffffffff163373ffffffffffffffffffffffffffffffffffffffff16146104f0576040517f08c379a00000000000000000000000000000000000000000000000000000000081526004016104e790610a68565b60405180910390fd5b60015f81548092919061050290610b10565b91905055506040518060a0016040528060015481526020018281526020018373ffffffffffffffffffffffffffffffffffffffff1681526020014281526020016001151581525060025f60015481526020019081526020015f205f820151815f015560208201518160010190816105799190610d08565b506040820151816002015f6101000a81548173ffffffffffffffffffffffffffffffffffffffff021916908373ffffffffffffffffffffffffffffffffffffffff160217905550606082015181600301556080820151816004015f6101000a81548160ff0219169083151502179055509050507f5035fe3a538bed56d4969d413299a1db6631592b0457263ad1b1509171624cfe600154828460405161062193929190610dd7565b60405180910390a15050565b5f604051905090565b5f5ffd5b5f5ffd5b5f819050919050565b6106508161063e565b811461065a575f5ffd5b50565b5f8135905061066b81610647565b92915050565b5f6020828403121561068657610685610636565b5b5f6106938482850161065d565b91505092915050565b5f81519050919050565b5f82825260208201905092915050565b8281835e5f83830152505050565b5f601f19601f8301169050919050565b5f6106de8261069c565b6106e881856106a6565b93506106f88185602086016106b6565b610701816106c4565b840191505092915050565b5f73ffffffffffffffffffffffffffffffffffffffff82169050919050565b5f6107358261070c565b9050919050565b6107458161072b565b82525050565b6107548161063e565b82525050565b5f8115159050919050565b61076e8161075a565b82525050565b5f6080820190508181035f83015261078c81876106d4565b905061079b602083018661073c565b6107a8604083018561074b565b6107b56060830184610765565b95945050505050565b5f6020820190506107d15f83018461074b565b92915050565b5f60a0820190506107ea5f83018861074b565b81810360208301526107fc81876106d4565b905061080b604083018661073c565b610818606083018561074b565b6108256080830184610765565b9695505050505050565b5f6020820190506108425f83018461073c565b92915050565b6108518161072b565b811461085b575f5ffd5b50565b5f8135905061086c81610848565b92915050565b5f5ffd5b5f5ffd5b7f4e487b71000000000000000000000000000000000000000000000000000000005f52604160045260245ffd5b6108b0826106c4565b810181811067ffffffffffffffff821117156108cf576108ce61087a565b5b80604052505050565b5f6108e161062d565b90506108ed82826108a7565b919050565b5f67ffffffffffffffff82111561090c5761090b61087a565b5b610915826106c4565b9050602081019050919050565b828183375f83830152505050565b5f61094261093d846108f2565b6108d8565b90508281526020810184848401111561095e5761095d610876565b5b610969848285610922565b509392505050565b5f82601f83011261098557610984610872565b5b8135610995848260208601610930565b91505092915050565b5f5f604083850312156109b4576109b3610636565b5b5f6109c18582860161085e565b925050602083013567ffffffffffffffff8111156109e2576109e161063a565b5b6109ee85828601610971565b9150509250929050565b7f48616e79612061646d696e2079616e672062697361206d656c616b756b616e205f8201527f696e690000000000000000000000000000000000000000000000000000000000602082015250565b5f610a526023836106a6565b9150610a5d826109f8565b604082019050919050565b5f6020820190508181035f830152610a7f81610a46565b9050919050565b7f4e487b71000000000000000000000000000000000000000000000000000000005f52602260045260245ffd5b5f6002820490506001821680610aca57607f821691505b602082108103610add57610adc610a86565b5b50919050565b7f4e487b71000000000000000000000000000000000000000000000000000000005f52601160045260245ffd5b5f610b1a8261063e565b91507fffffffffffffffffffffffffffffffffffffffffffffffffffffffffffffffff8203610b4c57610b4b610ae3565b5b600182019050919050565b5f819050815f5260205f209050919050565b5f6020601f8301049050919050565b5f82821b905092915050565b5f60088302610bb37fffffffffffffffffffffffffffffffffffffffffffffffffffffffffffffffff82610b78565b610bbd8683610b78565b95508019841693508086168417925050509392505050565b5f819050919050565b5f610bf8610bf3610bee8461063e565b610bd5565b61063e565b9050919050565b5f819050919050565b610c1183610bde565b610c25610c1d82610bff565b848454610b84565b825550505050565b5f5f905090565b610c3c610c2d565b610c47818484610c08565b505050565b5f5b82811015610c6d57610c625f828401610c34565b600181019050610c4e565b505050565b601f821115610cc05782821115610cbf57610c8c81610b57565b610c9583610b69565b610c9e85610b69565b6020861015610cab575f90505b808301610cba82840382610c4c565b505050505b5b505050565b5f82821c905092915050565b5f610ce05f1984600802610cc5565b1980831691505092915050565b5f610cf88383610cd1565b9150826002028217905092915050565b610d118261069c565b67ffffffffffffffff811115610d2a57610d2961087a565b5b610d348254610ab3565b610d3f828285610c72565b5f60209050601f831160018114610d70575f8415610d5e578287015190505b610d688582610ced565b865550610dcf565b601f198416610d7e86610b57565b5f5b82811015610da557848901518255600182019150602085019450602081019050610d80565b86831015610dc25784890151610dbe601f891682610cd1565b8355505b6001600288020188555050505b505050505050565b5f606082019050610dea5f83018661074b565b8181036020830152610dfc81856106d4565b9050610e0b604083018461073c565b94935050505056fea2646970667358221220ea0ebb002a9189c23f91187f6f31ccdee3cd003f7a9fa621d97a513ce0e7f85864736f6c63430008220033",
					"opcodes": "PUSH1 0x80 PUSH1 0x40 MSTORE PUSH0 PUSH1 0x1 SSTORE CALLVALUE DUP1 ISZERO PUSH1 0x12 JUMPI PUSH0 PUSH0 REVERT JUMPDEST POP CALLER PUSH0 PUSH0 PUSH2 0x100 EXP DUP2 SLOAD DUP2 PUSH20 0xFFFFFFFFFFFFFFFFFFFFFFFFFFFFFFFFFFFFFFFF MUL NOT AND SWAP1 DUP4 PUSH20 0xFFFFFFFFFFFFFFFFFFFFFFFFFFFFFFFFFFFFFFFF AND MUL OR SWAP1 SSTORE POP PUSH2 0xE49 DUP1 PUSH2 0x5F PUSH0 CODECOPY PUSH0 RETURN INVALID PUSH1 0x80 PUSH1 0x40 MSTORE CALLVALUE DUP1 ISZERO PUSH2 0xF JUMPI PUSH0 PUSH0 REVERT JUMPDEST POP PUSH1 0x4 CALLDATASIZE LT PUSH2 0x60 JUMPI PUSH0 CALLDATALOAD PUSH1 0xE0 SHR DUP1 PUSH4 0x6F5497E EQ PUSH2 0x64 JUMPI DUP1 PUSH4 0x1692A942 EQ PUSH2 0x80 JUMPI DUP1 PUSH4 0x52D7B89C EQ PUSH2 0xB3 JUMPI DUP1 PUSH4 0x663B3E22 EQ PUSH2 0xD1 JUMPI DUP1 PUSH4 0x8DA5CB5B EQ PUSH2 0x105 JUMPI DUP1 PUSH4 0xBB721AAB EQ PUSH2 0x123 JUMPI JUMPDEST PUSH0 PUSH0 REVERT JUMPDEST PUSH2 0x7E PUSH1 0x4 DUP1 CALLDATASIZE SUB DUP2 ADD SWAP1 PUSH2 0x79 SWAP2 SWAP1 PUSH2 0x671 JUMP JUMPDEST PUSH2 0x13F JUMP JUMPDEST STOP JUMPDEST PUSH2 0x9A PUSH1 0x4 DUP1 CALLDATASIZE SUB DUP2 ADD SWAP1 PUSH2 0x95 SWAP2 SWAP1 PUSH2 0x671 JUMP JUMPDEST PUSH2 0x1FB JUMP JUMPDEST PUSH1 0x40 MLOAD PUSH2 0xAA SWAP5 SWAP4 SWAP3 SWAP2 SWAP1 PUSH2 0x774 JUMP JUMPDEST PUSH1 0x40 MLOAD DUP1 SWAP2 SUB SWAP1 RETURN JUMPDEST PUSH2 0xBB PUSH2 0x355 JUMP JUMPDEST PUSH1 0x40 MLOAD PUSH2 0xC8 SWAP2 SWAP1 PUSH2 0x7BE JUMP JUMPDEST PUSH1 0x40 MLOAD DUP1 SWAP2 SUB SWAP1 RETURN JUMPDEST PUSH2 0xEB PUSH1 0x4 DUP1 CALLDATASIZE SUB DUP2 ADD SWAP1 PUSH2 0xE6 SWAP2 SWAP1 PUSH2 0x671 JUMP JUMPDEST PUSH2 0x35B JUMP JUMPDEST PUSH1 0x40 MLOAD PUSH2 0xFC SWAP6 SWAP5 SWAP4 SWAP3 SWAP2 SWAP1 PUSH2 0x7D7 JUMP JUMPDEST PUSH1 0x40 MLOAD DUP1 SWAP2 SUB SWAP1 RETURN JUMPDEST PUSH2 0x10D PUSH2 0x43E JUMP JUMPDEST PUSH1 0x40 MLOAD PUSH2 0x11A SWAP2 SWAP1 PUSH2 0x82F JUMP JUMPDEST PUSH1 0x40 MLOAD DUP1 SWAP2 SUB SWAP1 RETURN JUMPDEST PUSH2 0x13D PUSH1 0x4 DUP1 CALLDATASIZE SUB DUP2 ADD SWAP1 PUSH2 0x138 SWAP2 SWAP1 PUSH2 0x99E JUMP JUMPDEST PUSH2 0x462 JUMP JUMPDEST STOP JUMPDEST PUSH0 PUSH0 SWAP1 SLOAD SWAP1 PUSH2 0x100 EXP SWAP1 DIV PUSH20 0xFFFFFFFFFFFFFFFFFFFFFFFFFFFFFFFFFFFFFFFF AND PUSH20 0xFFFFFFFFFFFFFFFFFFFFFFFFFFFFFFFFFFFFFFFF AND CALLER PUSH20 0xFFFFFFFFFFFFFFFFFFFFFFFFFFFFFFFFFFFFFFFF AND EQ PUSH2 0x1CD JUMPI PUSH1 0x40 MLOAD PUSH32 0x8C379A000000000000000000000000000000000000000000000000000000000 DUP2 MSTORE PUSH1 0x4 ADD PUSH2 0x1C4 SWAP1 PUSH2 0xA68 JUMP JUMPDEST PUSH1 0x40 MLOAD DUP1 SWAP2 SUB SWAP1 REVERT JUMPDEST PUSH0 PUSH1 0x2 PUSH0 DUP4 DUP2 MSTORE PUSH1 0x20 ADD SWAP1 DUP2 MSTORE PUSH1 0x20 ADD PUSH0 KECCAK256 PUSH1 0x4 ADD PUSH0 PUSH2 0x100 EXP DUP2 SLOAD DUP2 PUSH1 0xFF MUL NOT AND SWAP1 DUP4 ISZERO ISZERO MUL OR SWAP1 SSTORE POP POP JUMP JUMPDEST PUSH1 0x60 PUSH0 PUSH0 PUSH0 PUSH0 PUSH1 0x2 PUSH0 DUP8 DUP2 MSTORE PUSH1 0x20 ADD SWAP1 DUP2 MSTORE PUSH1 0x20 ADD PUSH0 KECCAK256 PUSH1 0x40 MLOAD DUP1 PUSH1 0xA0 ADD PUSH1 0x40 MSTORE SWAP1 DUP2 PUSH0 DUP3 ADD SLOAD DUP2 MSTORE PUSH1 0x20 ADD PUSH1 0x1 DUP3 ADD DUP1 SLOAD PUSH2 0x236 SWAP1 PUSH2 0xAB3 JUMP JUMPDEST DUP1 PUSH1 0x1F ADD PUSH1 0x20 DUP1 SWAP2 DIV MUL PUSH1 0x20 ADD PUSH1 0x40 MLOAD SWAP1 DUP2 ADD PUSH1 0x40 MSTORE DUP1 SWAP3 SWAP2 SWAP1 DUP2 DUP2 MSTORE PUSH1 0x20 ADD DUP3 DUP1 SLOAD PUSH2 0x262 SWAP1 PUSH2 0xAB3 JUMP JUMPDEST DUP1 ISZERO PUSH2 0x2AD JUMPI DUP1 PUSH1 0x1F LT PUSH2 0x284 JUMPI PUSH2 0x100 DUP1 DUP4 SLOAD DIV MUL DUP4 MSTORE SWAP2 PUSH1 0x20 ADD SWAP2 PUSH2 0x2AD JUMP JUMPDEST DUP3 ADD SWAP2 SWAP1 PUSH0 MSTORE PUSH1 0x20 PUSH0 KECCAK256 SWAP1 JUMPDEST DUP2 SLOAD DUP2 MSTORE SWAP1 PUSH1 0x1 ADD SWAP1 PUSH1 0x20 ADD DUP1 DUP4 GT PUSH2 0x290 JUMPI DUP3 SWAP1 SUB PUSH1 0x1F AND DUP3 ADD SWAP2 JUMPDEST POP POP POP POP POP DUP2 MSTORE PUSH1 0x20 ADD PUSH1 0x2 DUP3 ADD PUSH0 SWAP1 SLOAD SWAP1 PUSH2 0x100 EXP SWAP1 DIV PUSH20 0xFFFFFFFFFFFFFFFFFFFFFFFFFFFFFFFFFFFFFFFF AND PUSH20 0xFFFFFFFFFFFFFFFFFFFFFFFFFFFFFFFFFFFFFFFF AND PUSH20 0xFFFFFFFFFFFFFFFFFFFFFFFFFFFFFFFFFFFFFFFF AND DUP2 MSTORE PUSH1 0x20 ADD PUSH1 0x3 DUP3 ADD SLOAD DUP2 MSTORE PUSH1 0x20 ADD PUSH1 0x4 DUP3 ADD PUSH0 SWAP1 SLOAD SWAP1 PUSH2 0x100 EXP SWAP1 DIV PUSH1 0xFF AND ISZERO ISZERO ISZERO ISZERO DUP2 MSTORE POP POP SWAP1 POP DUP1 PUSH1 0x20 ADD MLOAD DUP2 PUSH1 0x40 ADD MLOAD DUP3 PUSH1 0x60 ADD MLOAD DUP4 PUSH1 0x80 ADD MLOAD SWAP5 POP SWAP5 POP SWAP5 POP SWAP5 POP POP SWAP2 SWAP4 POP SWAP2 SWAP4 JUMP JUMPDEST PUSH1 0x1 SLOAD DUP2 JUMP JUMPDEST PUSH1 0x2 PUSH1 0x20 MSTORE DUP1 PUSH0 MSTORE PUSH1 0x40 PUSH0 KECCAK256 PUSH0 SWAP2 POP SWAP1 POP DUP1 PUSH0 ADD SLOAD SWAP1 DUP1 PUSH1 0x1 ADD DUP1 SLOAD PUSH2 0x380 SWAP1 PUSH2 0xAB3 JUMP JUMPDEST DUP1 PUSH1 0x1F ADD PUSH1 0x20 DUP1 SWAP2 DIV MUL PUSH1 0x20 ADD PUSH1 0x40 MLOAD SWAP1 DUP2 ADD PUSH1 0x40 MSTORE DUP1 SWAP3 SWAP2 SWAP1 DUP2 DUP2 MSTORE PUSH1 0x20 ADD DUP3 DUP1 SLOAD PUSH2 0x3AC SWAP1 PUSH2 0xAB3 JUMP JUMPDEST DUP1 ISZERO PUSH2 0x3F7 JUMPI DUP1 PUSH1 0x1F LT PUSH2 0x3CE JUMPI PUSH2 0x100 DUP1 DUP4 SLOAD DIV MUL DUP4 MSTORE SWAP2 PUSH1 0x20 ADD SWAP2 PUSH2 0x3F7 JUMP JUMPDEST DUP3 ADD SWAP2 SWAP1 PUSH0 MSTORE PUSH1 0x20 PUSH0 KECCAK256 SWAP1 JUMPDEST DUP2 SLOAD DUP2 MSTORE SWAP1 PUSH1 0x1 ADD SWAP1 PUSH1 0x20 ADD DUP1 DUP4 GT PUSH2 0x3DA JUMPI DUP3 SWAP1 SUB PUSH1 0x1F AND DUP3 ADD SWAP2 JUMPDEST POP POP POP POP POP SWAP1 DUP1 PUSH1 0x2 ADD PUSH0 SWAP1 SLOAD SWAP1 PUSH2 0x100 EXP SWAP1 DIV PUSH20 0xFFFFFFFFFFFFFFFFFFFFFFFFFFFFFFFFFFFFFFFF AND SWAP1 DUP1 PUSH1 0x3 ADD SLOAD SWAP1 DUP1 PUSH1 0x4 ADD PUSH0 SWAP1 SLOAD SWAP1 PUSH2 0x100 EXP SWAP1 DIV PUSH1 0xFF AND SWAP1 POP DUP6 JUMP JUMPDEST PUSH0 PUSH0 SWAP1 SLOAD SWAP1 PUSH2 0x100 EXP SWAP1 DIV PUSH20 0xFFFFFFFFFFFFFFFFFFFFFFFFFFFFFFFFFFFFFFFF AND DUP2 JUMP JUMPDEST PUSH0 PUSH0 SWAP1 SLOAD SWAP1 PUSH2 0x100 EXP SWAP1 DIV PUSH20 0xFFFFFFFFFFFFFFFFFFFFFFFFFFFFFFFFFFFFFFFF AND PUSH20 0xFFFFFFFFFFFFFFFFFFFFFFFFFFFFFFFFFFFFFFFF AND CALLER PUSH20 0xFFFFFFFFFFFFFFFFFFFFFFFFFFFFFFFFFFFFFFFF AND EQ PUSH2 0x4F0 JUMPI PUSH1 0x40 MLOAD PUSH32 0x8C379A000000000000000000000000000000000000000000000000000000000 DUP2 MSTORE PUSH1 0x4 ADD PUSH2 0x4E7 SWAP1 PUSH2 0xA68 JUMP JUMPDEST PUSH1 0x40 MLOAD DUP1 SWAP2 SUB SWAP1 REVERT JUMPDEST PUSH1 0x1 PUSH0 DUP2 SLOAD DUP1 SWAP3 SWAP2 SWAP1 PUSH2 0x502 SWAP1 PUSH2 0xB10 JUMP JUMPDEST SWAP2 SWAP1 POP SSTORE POP PUSH1 0x40 MLOAD DUP1 PUSH1 0xA0 ADD PUSH1 0x40 MSTORE DUP1 PUSH1 0x1 SLOAD DUP2 MSTORE PUSH1 0x20 ADD DUP3 DUP2 MSTORE PUSH1 0x20 ADD DUP4 PUSH20 0xFFFFFFFFFFFFFFFFFFFFFFFFFFFFFFFFFFFFFFFF AND DUP2 MSTORE PUSH1 0x20 ADD TIMESTAMP DUP2 MSTORE PUSH1 0x20 ADD PUSH1 0x1 ISZERO ISZERO DUP2 MSTORE POP PUSH1 0x2 PUSH0 PUSH1 0x1 SLOAD DUP2 MSTORE PUSH1 0x20 ADD SWAP1 DUP2 MSTORE PUSH1 0x20 ADD PUSH0 KECCAK256 PUSH0 DUP3 ADD MLOAD DUP2 PUSH0 ADD SSTORE PUSH1 0x20 DUP3 ADD MLOAD DUP2 PUSH1 0x1 ADD SWAP1 DUP2 PUSH2 0x579 SWAP2 SWAP1 PUSH2 0xD08 JUMP JUMPDEST POP PUSH1 0x40 DUP3 ADD MLOAD DUP2 PUSH1 0x2 ADD PUSH0 PUSH2 0x100 EXP DUP2 SLOAD DUP2 PUSH20 0xFFFFFFFFFFFFFFFFFFFFFFFFFFFFFFFFFFFFFFFF MUL NOT AND SWAP1 DUP4 PUSH20 0xFFFFFFFFFFFFFFFFFFFFFFFFFFFFFFFFFFFFFFFF AND MUL OR SWAP1 SSTORE POP PUSH1 0x60 DUP3 ADD MLOAD DUP2 PUSH1 0x3 ADD SSTORE PUSH1 0x80 DUP3 ADD MLOAD DUP2 PUSH1 0x4 ADD PUSH0 PUSH2 0x100 EXP DUP2 SLOAD DUP2 PUSH1 0xFF MUL NOT AND SWAP1 DUP4 ISZERO ISZERO MUL OR SWAP1 SSTORE POP SWAP1 POP POP PUSH32 0x5035FE3A538BED56D4969D413299A1DB6631592B0457263AD1B1509171624CFE PUSH1 0x1 SLOAD DUP3 DUP5 PUSH1 0x40 MLOAD PUSH2 0x621 SWAP4 SWAP3 SWAP2 SWAP1 PUSH2 0xDD7 JUMP JUMPDEST PUSH1 0x40 MLOAD DUP1 SWAP2 SUB SWAP1 LOG1 POP POP JUMP JUMPDEST PUSH0 PUSH1 0x40 MLOAD SWAP1 POP SWAP1 JUMP JUMPDEST PUSH0 PUSH0 REVERT JUMPDEST PUSH0 PUSH0 REVERT JUMPDEST PUSH0 DUP2 SWAP1 POP SWAP2 SWAP1 POP JUMP JUMPDEST PUSH2 0x650 DUP2 PUSH2 0x63E JUMP JUMPDEST DUP2 EQ PUSH2 0x65A JUMPI PUSH0 PUSH0 REVERT JUMPDEST POP JUMP JUMPDEST PUSH0 DUP2 CALLDATALOAD SWAP1 POP PUSH2 0x66B DUP2 PUSH2 0x647 JUMP JUMPDEST SWAP3 SWAP2 POP POP JUMP JUMPDEST PUSH0 PUSH1 0x20 DUP3 DUP5 SUB SLT ISZERO PUSH2 0x686 JUMPI PUSH2 0x685 PUSH2 0x636 JUMP JUMPDEST JUMPDEST PUSH0 PUSH2 0x693 DUP5 DUP3 DUP6 ADD PUSH2 0x65D JUMP JUMPDEST SWAP2 POP POP SWAP3 SWAP2 POP POP JUMP JUMPDEST PUSH0 DUP2 MLOAD SWAP1 POP SWAP2 SWAP1 POP JUMP JUMPDEST PUSH0 DUP3 DUP3 MSTORE PUSH1 0x20 DUP3 ADD SWAP1 POP SWAP3 SWAP2 POP POP JUMP JUMPDEST DUP3 DUP2 DUP4 MCOPY PUSH0 DUP4 DUP4 ADD MSTORE POP POP POP JUMP JUMPDEST PUSH0 PUSH1 0x1F NOT PUSH1 0x1F DUP4 ADD AND SWAP1 POP SWAP2 SWAP1 POP JUMP JUMPDEST PUSH0 PUSH2 0x6DE DUP3 PUSH2 0x69C JUMP JUMPDEST PUSH2 0x6E8 DUP2 DUP6 PUSH2 0x6A6 JUMP JUMPDEST SWAP4 POP PUSH2 0x6F8 DUP2 DUP6 PUSH1 0x20 DUP7 ADD PUSH2 0x6B6 JUMP JUMPDEST PUSH2 0x701 DUP2 PUSH2 0x6C4 JUMP JUMPDEST DUP5 ADD SWAP2 POP POP SWAP3 SWAP2 POP POP JUMP JUMPDEST PUSH0 PUSH20 0xFFFFFFFFFFFFFFFFFFFFFFFFFFFFFFFFFFFFFFFF DUP3 AND SWAP1 POP SWAP2 SWAP1 POP JUMP JUMPDEST PUSH0 PUSH2 0x735 DUP3 PUSH2 0x70C JUMP JUMPDEST SWAP1 POP SWAP2 SWAP1 POP JUMP JUMPDEST PUSH2 0x745 DUP2 PUSH2 0x72B JUMP JUMPDEST DUP3 MSTORE POP POP JUMP JUMPDEST PUSH2 0x754 DUP2 PUSH2 0x63E JUMP JUMPDEST DUP3 MSTORE POP POP JUMP JUMPDEST PUSH0 DUP2 ISZERO ISZERO SWAP1 POP SWAP2 SWAP1 POP JUMP JUMPDEST PUSH2 0x76E DUP2 PUSH2 0x75A JUMP JUMPDEST DUP3 MSTORE POP POP JUMP JUMPDEST PUSH0 PUSH1 0x80 DUP3 ADD SWAP1 POP DUP2 DUP2 SUB PUSH0 DUP4 ADD MSTORE PUSH2 0x78C DUP2 DUP8 PUSH2 0x6D4 JUMP JUMPDEST SWAP1 POP PUSH2 0x79B PUSH1 0x20 DUP4 ADD DUP7 PUSH2 0x73C JUMP JUMPDEST PUSH2 0x7A8 PUSH1 0x40 DUP4 ADD DUP6 PUSH2 0x74B JUMP JUMPDEST PUSH2 0x7B5 PUSH1 0x60 DUP4 ADD DUP5 PUSH2 0x765 JUMP JUMPDEST SWAP6 SWAP5 POP POP POP POP POP JUMP JUMPDEST PUSH0 PUSH1 0x20 DUP3 ADD SWAP1 POP PUSH2 0x7D1 PUSH0 DUP4 ADD DUP5 PUSH2 0x74B JUMP JUMPDEST SWAP3 SWAP2 POP POP JUMP JUMPDEST PUSH0 PUSH1 0xA0 DUP3 ADD SWAP1 POP PUSH2 0x7EA PUSH0 DUP4 ADD DUP9 PUSH2 0x74B JUMP JUMPDEST DUP2 DUP2 SUB PUSH1 0x20 DUP4 ADD MSTORE PUSH2 0x7FC DUP2 DUP8 PUSH2 0x6D4 JUMP JUMPDEST SWAP1 POP PUSH2 0x80B PUSH1 0x40 DUP4 ADD DUP7 PUSH2 0x73C JUMP JUMPDEST PUSH2 0x818 PUSH1 0x60 DUP4 ADD DUP6 PUSH2 0x74B JUMP JUMPDEST PUSH2 0x825 PUSH1 0x80 DUP4 ADD DUP5 PUSH2 0x765 JUMP JUMPDEST SWAP7 SWAP6 POP POP POP POP POP POP JUMP JUMPDEST PUSH0 PUSH1 0x20 DUP3 ADD SWAP1 POP PUSH2 0x842 PUSH0 DUP4 ADD DUP5 PUSH2 0x73C JUMP JUMPDEST SWAP3 SWAP2 POP POP JUMP JUMPDEST PUSH2 0x851 DUP2 PUSH2 0x72B JUMP JUMPDEST DUP2 EQ PUSH2 0x85B JUMPI PUSH0 PUSH0 REVERT JUMPDEST POP JUMP JUMPDEST PUSH0 DUP2 CALLDATALOAD SWAP1 POP PUSH2 0x86C DUP2 PUSH2 0x848 JUMP JUMPDEST SWAP3 SWAP2 POP POP JUMP JUMPDEST PUSH0 PUSH0 REVERT JUMPDEST PUSH0 PUSH0 REVERT JUMPDEST PUSH32 0x4E487B7100000000000000000000000000000000000000000000000000000000 PUSH0 MSTORE PUSH1 0x41 PUSH1 0x4 MSTORE PUSH1 0x24 PUSH0 REVERT JUMPDEST PUSH2 0x8B0 DUP3 PUSH2 0x6C4 JUMP JUMPDEST DUP2 ADD DUP2 DUP2 LT PUSH8 0xFFFFFFFFFFFFFFFF DUP3 GT OR ISZERO PUSH2 0x8CF JUMPI PUSH2 0x8CE PUSH2 0x87A JUMP JUMPDEST JUMPDEST DUP1 PUSH1 0x40 MSTORE POP POP POP JUMP JUMPDEST PUSH0 PUSH2 0x8E1 PUSH2 0x62D JUMP JUMPDEST SWAP1 POP PUSH2 0x8ED DUP3 DUP3 PUSH2 0x8A7 JUMP JUMPDEST SWAP2 SWAP1 POP JUMP JUMPDEST PUSH0 PUSH8 0xFFFFFFFFFFFFFFFF DUP3 GT ISZERO PUSH2 0x90C JUMPI PUSH2 0x90B PUSH2 0x87A JUMP JUMPDEST JUMPDEST PUSH2 0x915 DUP3 PUSH2 0x6C4 JUMP JUMPDEST SWAP1 POP PUSH1 0x20 DUP2 ADD SWAP1 POP SWAP2 SWAP1 POP JUMP JUMPDEST DUP3 DUP2 DUP4 CALLDATACOPY PUSH0 DUP4 DUP4 ADD MSTORE POP POP POP JUMP JUMPDEST PUSH0 PUSH2 0x942 PUSH2 0x93D DUP5 PUSH2 0x8F2 JUMP JUMPDEST PUSH2 0x8D8 JUMP JUMPDEST SWAP1 POP DUP3 DUP2 MSTORE PUSH1 0x20 DUP2 ADD DUP5 DUP5 DUP5 ADD GT ISZERO PUSH2 0x95E JUMPI PUSH2 0x95D PUSH2 0x876 JUMP JUMPDEST JUMPDEST PUSH2 0x969 DUP5 DUP3 DUP6 PUSH2 0x922 JUMP JUMPDEST POP SWAP4 SWAP3 POP POP POP JUMP JUMPDEST PUSH0 DUP3 PUSH1 0x1F DUP4 ADD SLT PUSH2 0x985 JUMPI PUSH2 0x984 PUSH2 0x872 JUMP JUMPDEST JUMPDEST DUP2 CALLDATALOAD PUSH2 0x995 DUP5 DUP3 PUSH1 0x20 DUP7 ADD PUSH2 0x930 JUMP JUMPDEST SWAP2 POP POP SWAP3 SWAP2 POP POP JUMP JUMPDEST PUSH0 PUSH0 PUSH1 0x40 DUP4 DUP6 SUB SLT ISZERO PUSH2 0x9B4 JUMPI PUSH2 0x9B3 PUSH2 0x636 JUMP JUMPDEST JUMPDEST PUSH0 PUSH2 0x9C1 DUP6 DUP3 DUP7 ADD PUSH2 0x85E JUMP JUMPDEST SWAP3 POP POP PUSH1 0x20 DUP4 ADD CALLDATALOAD PUSH8 0xFFFFFFFFFFFFFFFF DUP2 GT ISZERO PUSH2 0x9E2 JUMPI PUSH2 0x9E1 PUSH2 0x63A JUMP JUMPDEST JUMPDEST PUSH2 0x9EE DUP6 DUP3 DUP7 ADD PUSH2 0x971 JUMP JUMPDEST SWAP2 POP POP SWAP3 POP SWAP3 SWAP1 POP JUMP JUMPDEST PUSH32 0x48616E79612061646D696E2079616E672062697361206D656C616B756B616E20 PUSH0 DUP3 ADD MSTORE PUSH32 0x696E690000000000000000000000000000000000000000000000000000000000 PUSH1 0x20 DUP3 ADD MSTORE POP JUMP JUMPDEST PUSH0 PUSH2 0xA52 PUSH1 0x23 DUP4 PUSH2 0x6A6 JUMP JUMPDEST SWAP2 POP PUSH2 0xA5D DUP3 PUSH2 0x9F8 JUMP JUMPDEST PUSH1 0x40 DUP3 ADD SWAP1 POP SWAP2 SWAP1 POP JUMP JUMPDEST PUSH0 PUSH1 0x20 DUP3 ADD SWAP1 POP DUP2 DUP2 SUB PUSH0 DUP4 ADD MSTORE PUSH2 0xA7F DUP2 PUSH2 0xA46 JUMP JUMPDEST SWAP1 POP SWAP2 SWAP1 POP JUMP JUMPDEST PUSH32 0x4E487B7100000000000000000000000000000000000000000000000000000000 PUSH0 MSTORE PUSH1 0x22 PUSH1 0x4 MSTORE PUSH1 0x24 PUSH0 REVERT JUMPDEST PUSH0 PUSH1 0x2 DUP3 DIV SWAP1 POP PUSH1 0x1 DUP3 AND DUP1 PUSH2 0xACA JUMPI PUSH1 0x7F DUP3 AND SWAP2 POP JUMPDEST PUSH1 0x20 DUP3 LT DUP2 SUB PUSH2 0xADD JUMPI PUSH2 0xADC PUSH2 0xA86 JUMP JUMPDEST JUMPDEST POP SWAP2 SWAP1 POP JUMP JUMPDEST PUSH32 0x4E487B7100000000000000000000000000000000000000000000000000000000 PUSH0 MSTORE PUSH1 0x11 PUSH1 0x4 MSTORE PUSH1 0x24 PUSH0 REVERT JUMPDEST PUSH0 PUSH2 0xB1A DUP3 PUSH2 0x63E JUMP JUMPDEST SWAP2 POP PUSH32 0xFFFFFFFFFFFFFFFFFFFFFFFFFFFFFFFFFFFFFFFFFFFFFFFFFFFFFFFFFFFFFFFF DUP3 SUB PUSH2 0xB4C JUMPI PUSH2 0xB4B PUSH2 0xAE3 JUMP JUMPDEST JUMPDEST PUSH1 0x1 DUP3 ADD SWAP1 POP SWAP2 SWAP1 POP JUMP JUMPDEST PUSH0 DUP2 SWAP1 POP DUP2 PUSH0 MSTORE PUSH1 0x20 PUSH0 KECCAK256 SWAP1 POP SWAP2 SWAP1 POP JUMP JUMPDEST PUSH0 PUSH1 0x20 PUSH1 0x1F DUP4 ADD DIV SWAP1 POP SWAP2 SWAP1 POP JUMP JUMPDEST PUSH0 DUP3 DUP3 SHL SWAP1 POP SWAP3 SWAP2 POP POP JUMP JUMPDEST PUSH0 PUSH1 0x8 DUP4 MUL PUSH2 0xBB3 PUSH32 0xFFFFFFFFFFFFFFFFFFFFFFFFFFFFFFFFFFFFFFFFFFFFFFFFFFFFFFFFFFFFFFFF DUP3 PUSH2 0xB78 JUMP JUMPDEST PUSH2 0xBBD DUP7 DUP4 PUSH2 0xB78 JUMP JUMPDEST SWAP6 POP DUP1 NOT DUP5 AND SWAP4 POP DUP1 DUP7 AND DUP5 OR SWAP3 POP POP POP SWAP4 SWAP3 POP POP POP JUMP JUMPDEST PUSH0 DUP2 SWAP1 POP SWAP2 SWAP1 POP JUMP JUMPDEST PUSH0 PUSH2 0xBF8 PUSH2 0xBF3 PUSH2 0xBEE DUP5 PUSH2 0x63E JUMP JUMPDEST PUSH2 0xBD5 JUMP JUMPDEST PUSH2 0x63E JUMP JUMPDEST SWAP1 POP SWAP2 SWAP1 POP JUMP JUMPDEST PUSH0 DUP2 SWAP1 POP SWAP2 SWAP1 POP JUMP JUMPDEST PUSH2 0xC11 DUP4 PUSH2 0xBDE JUMP JUMPDEST PUSH2 0xC25 PUSH2 0xC1D DUP3 PUSH2 0xBFF JUMP JUMPDEST DUP5 DUP5 SLOAD PUSH2 0xB84 JUMP JUMPDEST DUP3 SSTORE POP POP POP POP JUMP JUMPDEST PUSH0 PUSH0 SWAP1 POP SWAP1 JUMP JUMPDEST PUSH2 0xC3C PUSH2 0xC2D JUMP JUMPDEST PUSH2 0xC47 DUP2 DUP5 DUP5 PUSH2 0xC08 JUMP JUMPDEST POP POP POP JUMP JUMPDEST PUSH0 JUMPDEST DUP3 DUP2 LT ISZERO PUSH2 0xC6D JUMPI PUSH2 0xC62 PUSH0 DUP3 DUP5 ADD PUSH2 0xC34 JUMP JUMPDEST PUSH1 0x1 DUP2 ADD SWAP1 POP PUSH2 0xC4E JUMP JUMPDEST POP POP POP JUMP JUMPDEST PUSH1 0x1F DUP3 GT ISZERO PUSH2 0xCC0 JUMPI DUP3 DUP3 GT ISZERO PUSH2 0xCBF JUMPI PUSH2 0xC8C DUP2 PUSH2 0xB57 JUMP JUMPDEST PUSH2 0xC95 DUP4 PUSH2 0xB69 JUMP JUMPDEST PUSH2 0xC9E DUP6 PUSH2 0xB69 JUMP JUMPDEST PUSH1 0x20 DUP7 LT ISZERO PUSH2 0xCAB JUMPI PUSH0 SWAP1 POP JUMPDEST DUP1 DUP4 ADD PUSH2 0xCBA DUP3 DUP5 SUB DUP3 PUSH2 0xC4C JUMP JUMPDEST POP POP POP POP JUMPDEST JUMPDEST POP POP POP JUMP JUMPDEST PUSH0 DUP3 DUP3 SHR SWAP1 POP SWAP3 SWAP2 POP POP JUMP JUMPDEST PUSH0 PUSH2 0xCE0 PUSH0 NOT DUP5 PUSH1 0x8 MUL PUSH2 0xCC5 JUMP JUMPDEST NOT DUP1 DUP4 AND SWAP2 POP POP SWAP3 SWAP2 POP POP JUMP JUMPDEST PUSH0 PUSH2 0xCF8 DUP4 DUP4 PUSH2 0xCD1 JUMP JUMPDEST SWAP2 POP DUP3 PUSH1 0x2 MUL DUP3 OR SWAP1 POP SWAP3 SWAP2 POP POP JUMP JUMPDEST PUSH2 0xD11 DUP3 PUSH2 0x69C JUMP JUMPDEST PUSH8 0xFFFFFFFFFFFFFFFF DUP2 GT ISZERO PUSH2 0xD2A JUMPI PUSH2 0xD29 PUSH2 0x87A JUMP JUMPDEST JUMPDEST PUSH2 0xD34 DUP3 SLOAD PUSH2 0xAB3 JUMP JUMPDEST PUSH2 0xD3F DUP3 DUP3 DUP6 PUSH2 0xC72 JUMP JUMPDEST PUSH0 PUSH1 0x20 SWAP1 POP PUSH1 0x1F DUP4 GT PUSH1 0x1 DUP2 EQ PUSH2 0xD70 JUMPI PUSH0 DUP5 ISZERO PUSH2 0xD5E JUMPI DUP3 DUP8 ADD MLOAD SWAP1 POP JUMPDEST PUSH2 0xD68 DUP6 DUP3 PUSH2 0xCED JUMP JUMPDEST DUP7 SSTORE POP PUSH2 0xDCF JUMP JUMPDEST PUSH1 0x1F NOT DUP5 AND PUSH2 0xD7E DUP7 PUSH2 0xB57 JUMP JUMPDEST PUSH0 JUMPDEST DUP3 DUP2 LT ISZERO PUSH2 0xDA5 JUMPI DUP5 DUP10 ADD MLOAD DUP3 SSTORE PUSH1 0x1 DUP3 ADD SWAP2 POP PUSH1 0x20 DUP6 ADD SWAP5 POP PUSH1 0x20 DUP2 ADD SWAP1 POP PUSH2 0xD80 JUMP JUMPDEST DUP7 DUP4 LT ISZERO PUSH2 0xDC2 JUMPI DUP5 DUP10 ADD MLOAD PUSH2 0xDBE PUSH1 0x1F DUP10 AND DUP3 PUSH2 0xCD1 JUMP JUMPDEST DUP4 SSTORE POP JUMPDEST PUSH1 0x1 PUSH1 0x2 DUP9 MUL ADD DUP9 SSTORE POP POP POP JUMPDEST POP POP POP POP POP POP JUMP JUMPDEST PUSH0 PUSH1 0x60 DUP3 ADD SWAP1 POP PUSH2 0xDEA PUSH0 DUP4 ADD DUP7 PUSH2 0x74B JUMP JUMPDEST DUP2 DUP2 SUB PUSH1 0x20 DUP4 ADD MSTORE PUSH2 0xDFC DUP2 DUP6 PUSH2 0x6D4 JUMP JUMPDEST SWAP1 POP PUSH2 0xE0B PUSH1 0x40 DUP4 ADD DUP5 PUSH2 0x73C JUMP JUMPDEST SWAP5 SWAP4 POP POP POP POP JUMP INVALID LOG2 PUSH5 0x6970667358 0x22 SLT KECCAK256 0xEA 0xE 0xBB STOP 0x2A SWAP2 DUP10 0xC2 EXTCODEHASH SWAP2 XOR PUSH32 0x6F31CCDEE3CD003F7A9FA621D97A513CE0E7F85864736F6C6343000822003300 "
				},
				"gasEstimates": {
					"creation": {
						"codeDepositCost": "731400",
						"executionCost": "30033",
						"totalCost": "761433"
					},
					"external": {
						"certificateCount()": "2447",
						"certificates(uint256)": "infinite",
						"issueCertificate(address,string)": "infinite",
						"owner()": "2573",
						"revokeCertificate(uint256)": "26894",
						"verifyCertificate(uint256)": "infinite"
					}
				},
				"methodIdentifiers": {
					"certificateCount()": "52d7b89c",
					"certificates(uint256)": "663b3e22",
					"issueCertificate(address,string)": "bb721aab",
					"owner()": "8da5cb5b",
					"revokeCertificate(uint256)": "06f5497e",
					"verifyCertificate(uint256)": "1692a942"
				}
			},
			"storageLayout": {
				"storage": [
					{
						"astId": 3,
						"contract": "Sertifikat.sol:SertifikatLiterasiKeuangan",
						"label": "owner",
						"offset": 0,
						"slot": "0",
						"type": "t_address"
					},
					{
						"astId": 6,
						"contract": "Sertifikat.sol:SertifikatLiterasiKeuangan",
						"label": "certificateCount",
						"offset": 0,
						"slot": "1",
						"type": "t_uint256"
					},
					{
						"astId": 31,
						"contract": "Sertifikat.sol:SertifikatLiterasiKeuangan",
						"label": "certificates",
						"offset": 0,
						"slot": "2",
						"type": "t_mapping(t_uint256,t_struct(Certificate)26_storage)"
					}
				],
				"types": {
					"t_address": {
						"encoding": "inplace",
						"label": "address",
						"numberOfBytes": "20"
					},
					"t_bool": {
						"encoding": "inplace",
						"label": "bool",
						"numberOfBytes": "1"
					},
					"t_mapping(t_uint256,t_struct(Certificate)26_storage)": {
						"encoding": "mapping",
						"key": "t_uint256",
						"label": "mapping(uint256 => struct SertifikatLiterasiKeuangan.Certificate)",
						"numberOfBytes": "32",
						"value": "t_struct(Certificate)26_storage"
					},
					"t_string_storage": {
						"encoding": "bytes",
						"label": "string",
						"numberOfBytes": "32"
					},
					"t_struct(Certificate)26_storage": {
						"encoding": "inplace",
						"label": "struct SertifikatLiterasiKeuangan.Certificate",
						"members": [
							{
								"astId": 17,
								"contract": "Sertifikat.sol:SertifikatLiterasiKeuangan",
								"label": "id",
								"offset": 0,
								"slot": "0",
								"type": "t_uint256"
							},
							{
								"astId": 19,
								"contract": "Sertifikat.sol:SertifikatLiterasiKeuangan",
								"label": "name",
								"offset": 0,
								"slot": "1",
								"type": "t_string_storage"
							},
							{
								"astId": 21,
								"contract": "Sertifikat.sol:SertifikatLiterasiKeuangan",
								"label": "participant",
								"offset": 0,
								"slot": "2",
								"type": "t_address"
							},
							{
								"astId": 23,
								"contract": "Sertifikat.sol:SertifikatLiterasiKeuangan",
								"label": "issuedDate",
								"offset": 0,
								"slot": "3",
								"type": "t_uint256"
							},
							{
								"astId": 25,
								"contract": "Sertifikat.sol:SertifikatLiterasiKeuangan",
								"label": "isValid",
								"offset": 0,
								"slot": "4",
								"type": "t_bool"
							}
						],
						"numberOfBytes": "160"
					},
					"t_uint256": {
						"encoding": "inplace",
						"label": "uint256",
						"numberOfBytes": "32"
					}
				}
			},
			"userdoc": {
				"kind": "user",
				"methods": {},
				"version": 1
			}
		}
	}
}